{
  "_format": "hh-sol-artifact-1",
  "contractName": "NFT",
  "sourceName": "contracts/NFT.sol",
  "abi": [
    {
      "inputs": [
        {
          "internalType": "string",
          "name": "name",
          "type": "string"
        },
        {
          "internalType": "string",
          "name": "symbol",
          "type": "string"
        },
        {
          "internalType": "uint256",
          "name": "_maxTotalSupply",
          "type": "uint256"
        },
        {
          "internalType": "string",
          "name": "_folderName",
          "type": "string"
        },
        {
          "internalType": "address",
          "name": "_admin",
          "type": "address"
        }
      ],
      "stateMutability": "nonpayable",
      "type": "constructor"
    },
    {
      "anonymous": false,
      "inputs": [
        {
          "indexed": true,
          "internalType": "address",
          "name": "owner",
          "type": "address"
        },
        {
          "indexed": true,
          "internalType": "address",
          "name": "approved",
          "type": "address"
        },
        {
          "indexed": true,
          "internalType": "uint256",
          "name": "tokenId",
          "type": "uint256"
        }
      ],
      "name": "Approval",
      "type": "event"
    },
    {
      "anonymous": false,
      "inputs": [
        {
          "indexed": true,
          "internalType": "address",
          "name": "owner",
          "type": "address"
        },
        {
          "indexed": true,
          "internalType": "address",
          "name": "operator",
          "type": "address"
        },
        {
          "indexed": false,
          "internalType": "bool",
          "name": "approved",
          "type": "bool"
        }
      ],
      "name": "ApprovalForAll",
      "type": "event"
    },
    {
      "anonymous": false,
      "inputs": [
        {
          "indexed": true,
          "internalType": "address",
          "name": "from",
          "type": "address"
        },
        {
          "indexed": true,
          "internalType": "address",
          "name": "to",
          "type": "address"
        },
        {
          "indexed": true,
          "internalType": "uint256",
          "name": "tokenId",
          "type": "uint256"
        }
      ],
      "name": "Transfer",
      "type": "event"
    },
    {
      "inputs": [],
      "name": "admin",
      "outputs": [
        {
          "internalType": "address",
          "name": "",
          "type": "address"
        }
      ],
      "stateMutability": "view",
      "type": "function"
    },
    {
      "inputs": [
        {
          "internalType": "address",
          "name": "to",
          "type": "address"
        },
        {
          "internalType": "uint256",
          "name": "tokenId",
          "type": "uint256"
        }
      ],
      "name": "approve",
      "outputs": [],
      "stateMutability": "nonpayable",
      "type": "function"
    },
    {
      "inputs": [
        {
          "internalType": "address",
          "name": "owner",
          "type": "address"
        }
      ],
      "name": "balanceOf",
      "outputs": [
        {
          "internalType": "uint256",
          "name": "",
          "type": "uint256"
        }
      ],
      "stateMutability": "view",
      "type": "function"
    },
    {
      "inputs": [],
      "name": "folderName",
      "outputs": [
        {
          "internalType": "string",
          "name": "",
          "type": "string"
        }
      ],
      "stateMutability": "view",
      "type": "function"
    },
    {
      "inputs": [
        {
          "internalType": "uint256",
          "name": "tokenId",
          "type": "uint256"
        }
      ],
      "name": "getApproved",
      "outputs": [
        {
          "internalType": "address",
          "name": "",
          "type": "address"
        }
      ],
      "stateMutability": "view",
      "type": "function"
    },
    {
      "inputs": [
        {
          "internalType": "address",
          "name": "owner",
          "type": "address"
        },
        {
          "internalType": "address",
          "name": "operator",
          "type": "address"
        }
      ],
      "name": "isApprovedForAll",
      "outputs": [
        {
          "internalType": "bool",
          "name": "",
          "type": "bool"
        }
      ],
      "stateMutability": "view",
      "type": "function"
    },
    {
      "inputs": [],
      "name": "maxTotalSupply",
      "outputs": [
        {
          "internalType": "uint256",
          "name": "",
          "type": "uint256"
        }
      ],
      "stateMutability": "view",
      "type": "function"
    },
    {
      "inputs": [
        {
          "internalType": "address",
          "name": "to",
          "type": "address"
        }
      ],
      "name": "mintNFT",
      "outputs": [
        {
          "internalType": "string",
          "name": "",
          "type": "string"
        }
      ],
      "stateMutability": "nonpayable",
      "type": "function"
    },
    {
      "inputs": [],
      "name": "name",
      "outputs": [
        {
          "internalType": "string",
          "name": "",
          "type": "string"
        }
      ],
      "stateMutability": "view",
      "type": "function"
    },
    {
      "inputs": [
        {
          "internalType": "uint256",
          "name": "tokenId",
          "type": "uint256"
        }
      ],
      "name": "ownerOf",
      "outputs": [
        {
          "internalType": "address",
          "name": "",
          "type": "address"
        }
      ],
      "stateMutability": "view",
      "type": "function"
    },
    {
      "inputs": [
        {
          "internalType": "address",
          "name": "from",
          "type": "address"
        },
        {
          "internalType": "address",
          "name": "to",
          "type": "address"
        },
        {
          "internalType": "uint256",
          "name": "tokenId",
          "type": "uint256"
        }
      ],
      "name": "safeTransferFrom",
      "outputs": [],
      "stateMutability": "nonpayable",
      "type": "function"
    },
    {
      "inputs": [
        {
          "internalType": "address",
          "name": "from",
          "type": "address"
        },
        {
          "internalType": "address",
          "name": "to",
          "type": "address"
        },
        {
          "internalType": "uint256",
          "name": "tokenId",
          "type": "uint256"
        },
        {
          "internalType": "bytes",
          "name": "_data",
          "type": "bytes"
        }
      ],
      "name": "safeTransferFrom",
      "outputs": [],
      "stateMutability": "nonpayable",
      "type": "function"
    },
    {
      "inputs": [
        {
          "internalType": "address",
          "name": "operator",
          "type": "address"
        },
        {
          "internalType": "bool",
          "name": "approved",
          "type": "bool"
        }
      ],
      "name": "setApprovalForAll",
      "outputs": [],
      "stateMutability": "nonpayable",
      "type": "function"
    },
    {
      "inputs": [
        {
          "internalType": "bytes4",
          "name": "interfaceId",
          "type": "bytes4"
        }
      ],
      "name": "supportsInterface",
      "outputs": [
        {
          "internalType": "bool",
          "name": "",
          "type": "bool"
        }
      ],
      "stateMutability": "view",
      "type": "function"
    },
    {
      "inputs": [],
      "name": "symbol",
      "outputs": [
        {
          "internalType": "string",
          "name": "",
          "type": "string"
        }
      ],
      "stateMutability": "view",
      "type": "function"
    },
    {
      "inputs": [
        {
          "internalType": "uint256",
          "name": "index",
          "type": "uint256"
        }
      ],
      "name": "tokenByIndex",
      "outputs": [
        {
          "internalType": "uint256",
          "name": "",
          "type": "uint256"
        }
      ],
      "stateMutability": "view",
      "type": "function"
    },
    {
      "inputs": [
        {
          "internalType": "address",
          "name": "owner",
          "type": "address"
        },
        {
          "internalType": "uint256",
          "name": "index",
          "type": "uint256"
        }
      ],
      "name": "tokenOfOwnerByIndex",
      "outputs": [
        {
          "internalType": "uint256",
          "name": "",
          "type": "uint256"
        }
      ],
      "stateMutability": "view",
      "type": "function"
    },
    {
      "inputs": [
        {
          "internalType": "uint256",
          "name": "tokenId",
          "type": "uint256"
        }
      ],
      "name": "tokenURI",
      "outputs": [
        {
          "internalType": "string",
          "name": "",
          "type": "string"
        }
      ],
      "stateMutability": "view",
      "type": "function"
    },
    {
      "inputs": [],
      "name": "totalSupply",
      "outputs": [
        {
          "internalType": "uint256",
          "name": "",
          "type": "uint256"
        }
      ],
      "stateMutability": "view",
      "type": "function"
    },
    {
      "inputs": [
        {
          "internalType": "address",
          "name": "from",
          "type": "address"
        },
        {
          "internalType": "address",
          "name": "to",
          "type": "address"
        },
        {
          "internalType": "uint256",
          "name": "tokenId",
          "type": "uint256"
        }
      ],
      "name": "transferFrom",
      "outputs": [],
      "stateMutability": "nonpayable",
      "type": "function"
    }
  ],
  "bytecode": "0x60806040523480156200001157600080fd5b50604051620020c4380380620020c48339810160408190526200003491620001f8565b8451859085906200004d906000906020850190620000a7565b50805162000063906001906020840190620000a7565b5050600c80546001600160a01b0319166001600160a01b03841617905550600d83905581516200009b90600e906020850190620000a7565b50505050505062000305565b828054620000b590620002b2565b90600052602060002090601f016020900481019282620000d9576000855562000124565b82601f10620000f457805160ff191683800117855562000124565b8280016001018555821562000124579182015b828111156200012457825182559160200191906001019062000107565b506200013292915062000136565b5090565b5b8082111562000132576000815560010162000137565b600082601f8301126200015e578081fd5b81516001600160401b03808211156200017b576200017b620002ef565b6040516020601f8401601f1916820181018381118382101715620001a357620001a3620002ef565b6040528382528584018101871015620001ba578485fd5b8492505b83831015620001dd5785830181015182840182015291820191620001be565b83831115620001ee57848185840101525b5095945050505050565b600080600080600060a0868803121562000210578081fd5b85516001600160401b038082111562000227578283fd5b6200023589838a016200014d565b965060208801519150808211156200024b578283fd5b6200025989838a016200014d565b955060408801519450606088015191508082111562000276578283fd5b5062000285888289016200014d565b608088015190935090506001600160a01b0381168114620002a4578182fd5b809150509295509295909350565b600281046001821680620002c757607f821691505b60208210811415620002e957634e487b7160e01b600052602260045260246000fd5b50919050565b634e487b7160e01b600052604160045260246000fd5b611daf80620003156000396000f3fe608060405234801561001057600080fd5b506004361061012c5760003560e01c806354ba0f27116100ad578063a22cb46511610071578063a22cb46514610256578063b88d4fde14610269578063c87b56dd1461027c578063e985e9c51461028f578063f851a440146102a25761012c565b806354ba0f271461020d5780636352211e1461022057806370a0823114610233578063731ad4121461024657806395d89b411461024e5761012c565b806323b872dd116100f457806323b872dd146101b95780632ab4d052146101cc5780632f745c59146101d457806342842e0e146101e75780634f6ccce7146101fa5761012c565b806301ffc9a71461013157806306fdde031461015a578063081812fc1461016f578063095ea7b31461018f57806318160ddd146101a4575b600080fd5b61014461013f3660046115a0565b6102aa565b60405161015191906116df565b60405180910390f35b6101626102bd565b60405161015191906116ea565b61018261017d3660046115d8565b61034f565b604051610151919061168e565b6101a261019d366004611577565b61039b565b005b6101ac610433565b6040516101519190611c1a565b6101a26101c7366004611436565b610439565b6101ac610471565b6101ac6101e2366004611577565b610477565b6101a26101f5366004611436565b6104c9565b6101ac6102083660046115d8565b6104e4565b61016261021b3660046113ea565b61053f565b61018261022e3660046115d8565b6105d8565b6101ac6102413660046113ea565b61060d565b610162610651565b6101626106df565b6101a261026436600461153d565b6106ee565b6101a2610277366004611471565b6107bc565b61016261028a3660046115d8565b6107fb565b61014461029d366004611404565b610806565b610182610834565b60006102b582610843565b90505b919050565b6060600080546102cc90611c92565b80601f01602080910402602001604051908101604052809291908181526020018280546102f890611c92565b80156103455780601f1061031a57610100808354040283529160200191610345565b820191906000526020600020905b81548152906001019060200180831161032857829003601f168201915b5050505050905090565b600061035a82610868565b61037f5760405162461bcd60e51b815260040161037690611a58565b60405180910390fd5b506000908152600460205260409020546001600160a01b031690565b60006103a6826105d8565b9050806001600160a01b0316836001600160a01b031614156103da5760405162461bcd60e51b815260040161037690611b3c565b806001600160a01b03166103ec610885565b6001600160a01b0316148061040857506104088161029d610885565b6104245760405162461bcd60e51b8152600401610376906118e2565b61042e8383610889565b505050565b60095490565b61044a610444610885565b826108f7565b6104665760405162461bcd60e51b815260040161037690611b7d565b61042e838383610974565b600d5481565b60006104828361060d565b82106104a05760405162461bcd60e51b8152600401610376906116fd565b506001600160a01b03919091166000908152600760209081526040808320938352929052205490565b61042e838383604051806020016040528060008152506107bc565b60006104ee610433565b821061050c5760405162461bcd60e51b815260040161037690611bce565b6009828154811061052d57634e487b7160e01b600052603260045260246000fd5b90600052602060002001549050919050565b600c546060906001600160a01b0316331461056c5760405162461bcd60e51b815260040161037690611872565b610576600b610aa1565b6001600d546105859190611c4f565b10156105a35760405162461bcd60e51b81526004016103769061184c565b6105ad600b610aa5565b60006105b9600b610aa1565b90506105c58382610aae565b60006105d0826107fb565b949350505050565b6000818152600260205260408120546001600160a01b0316806102b55760405162461bcd60e51b815260040161037690611989565b60006001600160a01b0382166106355760405162461bcd60e51b81526004016103769061193f565b506001600160a01b031660009081526003602052604090205490565b600e805461065e90611c92565b80601f016020809104026020016040519081016040528092919081815260200182805461068a90611c92565b80156106d75780601f106106ac576101008083540402835291602001916106d7565b820191906000526020600020905b8154815290600101906020018083116106ba57829003601f168201915b505050505081565b6060600180546102cc90611c92565b6106f6610885565b6001600160a01b0316826001600160a01b031614156107275760405162461bcd60e51b815260040161037690611815565b8060056000610734610885565b6001600160a01b03908116825260208083019390935260409182016000908120918716808252919093529120805460ff191692151592909217909155610778610885565b6001600160a01b03167f17307eab39ab6107e8899845ad3d59bd9653f200f220920489ca2b5937696c31836040516107b091906116df565b60405180910390a35050565b6107cd6107c7610885565b836108f7565b6107e95760405162461bcd60e51b815260040161037690611b7d565b6107f584848484610acc565b50505050565b60606102b582610aff565b6001600160a01b03918216600090815260056020908152604080832093909416825291909152205460ff1690565b600c546001600160a01b031681565b60006001600160e01b0319821663780e9d6360e01b14806102b557506102b582610c18565b6000908152600260205260409020546001600160a01b0316151590565b3390565b600081815260046020526040902080546001600160a01b0319166001600160a01b03841690811790915581906108be826105d8565b6001600160a01b03167f8c5be1e5ebec7d5bd14f71427d1e84f3dd0314c0f7b2291e5b200ac8c7c3b92560405160405180910390a45050565b600061090282610868565b61091e5760405162461bcd60e51b815260040161037690611896565b6000610929836105d8565b9050806001600160a01b0316846001600160a01b031614806109645750836001600160a01b03166109598461034f565b6001600160a01b0316145b806105d057506105d08185610806565b826001600160a01b0316610987826105d8565b6001600160a01b0316146109ad5760405162461bcd60e51b815260040161037690611aa4565b6001600160a01b0382166109d35760405162461bcd60e51b8152600401610376906117d1565b6109de838383610c58565b6109e9600082610889565b6001600160a01b0383166000908152600360205260408120805460019290610a12908490611c4f565b90915550506001600160a01b0382166000908152600360205260408120805460019290610a40908490611c23565b909155505060008181526002602052604080822080546001600160a01b0319166001600160a01b0386811691821790925591518493918716917fddf252ad1be2c89b69c2b068fc378daa952ba7f163c4a11628f55a4df523b3ef91a4505050565b5490565b80546001019055565b610ac8828260405180602001604052806000815250610c63565b5050565b610ad7848484610974565b610ae384848484610c96565b6107f55760405162461bcd60e51b815260040161037690611748565b6060610b0a82610868565b610b265760405162461bcd60e51b815260040161037690611a07565b60008281526006602052604081208054610b3f90611c92565b80601f0160208091040260200160405190810160405280929190818152602001828054610b6b90611c92565b8015610bb85780601f10610b8d57610100808354040283529160200191610bb8565b820191906000526020600020905b815481529060010190602001808311610b9b57829003601f168201915b505050505090506000610bc9610db1565b9050805160001415610bdd575090506102b8565b815115610c0f578082604051602001610bf792919061161c565b604051602081830303815290604052925050506102b8565b6105d084610e81565b60006001600160e01b031982166380ac58cd60e01b1480610c4957506001600160e01b03198216635b5e139f60e01b145b806102b557506102b582610f04565b61042e838383610f1d565b610c6d8383610fa6565b610c7a6000848484610c96565b61042e5760405162461bcd60e51b815260040161037690611748565b6000610caa846001600160a01b0316611085565b15610da657836001600160a01b031663150b7a02610cc6610885565b8786866040518563ffffffff1660e01b8152600401610ce894939291906116a2565b602060405180830381600087803b158015610d0257600080fd5b505af1925050508015610d32575060408051601f3d908101601f19168201909252610d2f918101906115bc565b60015b610d8c573d808015610d60576040519150601f19603f3d011682016040523d82523d6000602084013e610d65565b606091505b508051610d845760405162461bcd60e51b815260040161037690611748565b805181602001fd5b6001600160e01b031916630a85bd0160e11b1490506105d0565b506001949350505050565b60606000610e7b604051806060016040528060228152602001611d5860229139600e8054610dde90611c92565b80601f0160208091040260200160405190810160405280929190818152602001828054610e0a90611c92565b8015610e575780601f10610e2c57610100808354040283529160200191610e57565b820191906000526020600020905b815481529060010190602001808311610e3a57829003601f168201915b5050505050604051806040016040528060018152602001602f60f81b81525061108b565b91505090565b6060610e8c82610868565b610ea85760405162461bcd60e51b815260040161037690611aed565b6000610eb2610db1565b90506000815111610ed25760405180602001604052806000815250610efd565b80610edc846110ba565b604051602001610eed92919061161c565b6040516020818303038152906040525b9392505050565b6001600160e01b031981166301ffc9a760e01b14919050565b610f2883838361042e565b6001600160a01b038316610f4457610f3f816111d5565b610f67565b816001600160a01b0316836001600160a01b031614610f6757610f678382611219565b6001600160a01b038216610f8357610f7e816112b6565b61042e565b826001600160a01b0316826001600160a01b03161461042e5761042e828261138f565b6001600160a01b038216610fcc5760405162461bcd60e51b8152600401610376906119d2565b610fd581610868565b15610ff25760405162461bcd60e51b81526004016103769061179a565b610ffe60008383610c58565b6001600160a01b0382166000908152600360205260408120805460019290611027908490611c23565b909155505060008181526002602052604080822080546001600160a01b0319166001600160a01b03861690811790915590518392907fddf252ad1be2c89b69c2b068fc378daa952ba7f163c4a11628f55a4df523b3ef908290a45050565b3b151590565b60608383836040516020016110a29392919061164b565b60405160208183030381529060405290509392505050565b6060816110df57506040805180820190915260018152600360fc1b60208201526102b8565b8160005b811561110957806110f381611ccd565b91506111029050600a83611c3b565b91506110e3565b60008167ffffffffffffffff81111561113257634e487b7160e01b600052604160045260246000fd5b6040519080825280601f01601f19166020018201604052801561115c576020820181803683370190505b5090505b84156105d057611171600183611c4f565b915061117e600a86611ce8565b611189906030611c23565b60f81b8183815181106111ac57634e487b7160e01b600052603260045260246000fd5b60200101906001600160f81b031916908160001a9053506111ce600a86611c3b565b9450611160565b600980546000838152600a60205260408120829055600182018355919091527f6e1540171b6c0c960b71a7020d9f60077f6af931a8bbf590da0223dacf75c7af0155565b600060016112268461060d565b6112309190611c4f565b600083815260086020526040902054909150808214611283576001600160a01b03841660009081526007602090815260408083208584528252808320548484528184208190558352600890915290208190555b5060009182526008602090815260408084208490556001600160a01b039094168352600781528383209183525290812055565b6009546000906112c890600190611c4f565b6000838152600a6020526040812054600980549394509092849081106112fe57634e487b7160e01b600052603260045260246000fd5b90600052602060002001549050806009838154811061132d57634e487b7160e01b600052603260045260246000fd5b6000918252602080832090910192909255828152600a9091526040808220849055858252812055600980548061137357634e487b7160e01b600052603160045260246000fd5b6001900381819060005260206000200160009055905550505050565b600061139a8361060d565b6001600160a01b039093166000908152600760209081526040808320868452825280832085905593825260089052919091209190915550565b80356001600160a01b03811681146102b857600080fd5b6000602082840312156113fb578081fd5b610efd826113d3565b60008060408385031215611416578081fd5b61141f836113d3565b915061142d602084016113d3565b90509250929050565b60008060006060848603121561144a578081fd5b611453846113d3565b9250611461602085016113d3565b9150604084013590509250925092565b60008060008060808587031215611486578081fd5b61148f856113d3565b9350602061149e8187016113d3565b935060408601359250606086013567ffffffffffffffff808211156114c1578384fd5b818801915088601f8301126114d4578384fd5b8135818111156114e6576114e6611d28565b604051601f8201601f191681018501838111828210171561150957611509611d28565b60405281815283820185018b101561151f578586fd5b81858501868301379081019093019390935250939692955090935050565b6000806040838503121561154f578182fd5b611558836113d3565b91506020830135801515811461156c578182fd5b809150509250929050565b60008060408385031215611589578182fd5b611592836113d3565b946020939093013593505050565b6000602082840312156115b1578081fd5b8135610efd81611d3e565b6000602082840312156115cd578081fd5b8151610efd81611d3e565b6000602082840312156115e9578081fd5b5035919050565b60008151808452611608816020860160208601611c66565b601f01601f19169290920160200192915050565b6000835161162e818460208801611c66565b835190830190611642818360208801611c66565b01949350505050565b6000845161165d818460208901611c66565b845190830190611671818360208901611c66565b8451910190611684818360208801611c66565b0195945050505050565b6001600160a01b0391909116815260200190565b6001600160a01b03858116825284166020820152604081018390526080606082018190526000906116d5908301846115f0565b9695505050505050565b901515815260200190565b600060208252610efd60208301846115f0565b6020808252602b908201527f455243373231456e756d657261626c653a206f776e657220696e646578206f7560408201526a74206f6620626f756e647360a81b606082015260800190565b60208082526032908201527f4552433732313a207472616e7366657220746f206e6f6e20455243373231526560408201527131b2b4bb32b91034b6b83632b6b2b73a32b960711b606082015260800190565b6020808252601c908201527f4552433732313a20746f6b656e20616c7265616479206d696e74656400000000604082015260600190565b60208082526024908201527f4552433732313a207472616e7366657220746f20746865207a65726f206164646040820152637265737360e01b606082015260800190565b60208082526019908201527f4552433732313a20617070726f766520746f2063616c6c657200000000000000604082015260600190565b6020808252600c908201526b1bdd995c9cdd5c1c1b1a595960a21b604082015260600190565b6020808252600a908201526937b7363c9030b236b4b760b11b604082015260600190565b6020808252602c908201527f4552433732313a206f70657261746f7220717565727920666f72206e6f6e657860408201526b34b9ba32b73a103a37b5b2b760a11b606082015260800190565b60208082526038908201527f4552433732313a20617070726f76652063616c6c6572206973206e6f74206f7760408201527f6e6572206e6f7220617070726f76656420666f7220616c6c0000000000000000606082015260800190565b6020808252602a908201527f4552433732313a2062616c616e636520717565727920666f7220746865207a65604082015269726f206164647265737360b01b606082015260800190565b60208082526029908201527f4552433732313a206f776e657220717565727920666f72206e6f6e657869737460408201526832b73a103a37b5b2b760b91b606082015260800190565b6020808252818101527f4552433732313a206d696e7420746f20746865207a65726f2061646472657373604082015260600190565b60208082526031908201527f45524337323155524953746f726167653a2055524920717565727920666f72206040820152703737b732bc34b9ba32b73a103a37b5b2b760791b606082015260800190565b6020808252602c908201527f4552433732313a20617070726f76656420717565727920666f72206e6f6e657860408201526b34b9ba32b73a103a37b5b2b760a11b606082015260800190565b60208082526029908201527f4552433732313a207472616e73666572206f6620746f6b656e2074686174206960408201526839903737ba1037bbb760b91b606082015260800190565b6020808252602f908201527f4552433732314d657461646174613a2055524920717565727920666f72206e6f60408201526e3732bc34b9ba32b73a103a37b5b2b760891b606082015260800190565b60208082526021908201527f4552433732313a20617070726f76616c20746f2063757272656e74206f776e656040820152603960f91b606082015260800190565b60208082526031908201527f4552433732313a207472616e736665722063616c6c6572206973206e6f74206f6040820152701ddb995c881b9bdc88185c1c1c9bdd9959607a1b606082015260800190565b6020808252602c908201527f455243373231456e756d657261626c653a20676c6f62616c20696e646578206f60408201526b7574206f6620626f756e647360a01b606082015260800190565b90815260200190565b60008219821115611c3657611c36611cfc565b500190565b600082611c4a57611c4a611d12565b500490565b600082821015611c6157611c61611cfc565b500390565b60005b83811015611c81578181015183820152602001611c69565b838111156107f55750506000910152565b600281046001821680611ca657607f821691505b60208210811415611cc757634e487b7160e01b600052602260045260246000fd5b50919050565b6000600019821415611ce157611ce1611cfc565b5060010190565b600082611cf757611cf7611d12565b500690565b634e487b7160e01b600052601160045260246000fd5b634e487b7160e01b600052601260045260246000fd5b634e487b7160e01b600052604160045260246000fd5b6001600160e01b031981168114611d5457600080fd5b5056fe68747470733a2f2f676174657761792e70696e6174612e636c6f75642f697066732fa264697066735822122018bf202e30fd1b416f792c58c9d4c3804bcb1d9a7921728fcacf82f2d1cb763a64736f6c63430008000033",
  "linkReferences": {},
  "deployedLinkReferences": {}
}