{
  "_format": "hh-sol-artifact-1",
  "contractName": "ICO",
  "sourceName": "contracts/ICO.sol",
  "abi": [
    {
      "inputs": [
        {
          "internalType": "address",
          "name": "tokenAddress",
          "type": "address"
        },
        {
          "internalType": "uint256",
          "name": "_duration",
          "type": "uint256"
        },
        {
          "internalType": "uint256",
          "name": "_price",
          "type": "uint256"
        },
        {
          "internalType": "uint256",
          "name": "_availableTokens",
          "type": "uint256"
        },
        {
          "internalType": "uint256",
          "name": "_minPurchase",
          "type": "uint256"
        },
        {
          "internalType": "uint256",
          "name": "_maxPurchase",
          "type": "uint256"
        },
        {
          "internalType": "address",
          "name": "busdAddress",
          "type": "address"
        },
        {
          "internalType": "address",
          "name": "_authorAddress",
          "type": "address"
        },
        {
          "internalType": "uint256",
          "name": "_vestingInterval",
          "type": "uint256"
        }
      ],
      "stateMutability": "nonpayable",
      "type": "constructor"
    },
    {
      "anonymous": false,
      "inputs": [
        {
          "indexed": false,
          "internalType": "address",
          "name": "recipient",
          "type": "address"
        },
        {
          "indexed": false,
          "internalType": "uint256",
          "name": "startTime",
          "type": "uint256"
        },
        {
          "indexed": false,
          "internalType": "uint256",
          "name": "amount",
          "type": "uint256"
        },
        {
          "indexed": false,
          "internalType": "uint16",
          "name": "vestingDuration",
          "type": "uint16"
        }
      ],
      "name": "GrantAdded",
      "type": "event"
    },
    {
      "anonymous": false,
      "inputs": [
        {
          "indexed": false,
          "internalType": "address",
          "name": "recipient",
          "type": "address"
        },
        {
          "indexed": false,
          "internalType": "uint256",
          "name": "amountVested",
          "type": "uint256"
        },
        {
          "indexed": false,
          "internalType": "uint256",
          "name": "amountNotVested",
          "type": "uint256"
        }
      ],
      "name": "GrantRemoved",
      "type": "event"
    },
    {
      "anonymous": false,
      "inputs": [
        {
          "indexed": false,
          "internalType": "address",
          "name": "recipient",
          "type": "address"
        },
        {
          "indexed": false,
          "internalType": "uint256",
          "name": "amountClaimed",
          "type": "uint256"
        }
      ],
      "name": "GrantTokensClaimed",
      "type": "event"
    },
    {
      "inputs": [
        {
          "internalType": "address",
          "name": "_recipient",
          "type": "address"
        },
        {
          "internalType": "uint256",
          "name": "_startTime",
          "type": "uint256"
        },
        {
          "internalType": "uint256",
          "name": "_amount",
          "type": "uint256"
        },
        {
          "internalType": "uint16",
          "name": "_vestingDuration",
          "type": "uint16"
        }
      ],
      "name": "addBusdGrant",
      "outputs": [],
      "stateMutability": "nonpayable",
      "type": "function"
    },
    {
      "inputs": [],
      "name": "admin",
      "outputs": [
        {
          "internalType": "address",
          "name": "",
          "type": "address"
        }
      ],
      "stateMutability": "view",
      "type": "function"
    },
    {
      "inputs": [],
      "name": "availableTokens",
      "outputs": [
        {
          "internalType": "uint256",
          "name": "",
          "type": "uint256"
        }
      ],
      "stateMutability": "view",
      "type": "function"
    },
    {
      "inputs": [],
      "name": "busd",
      "outputs": [
        {
          "internalType": "contract Token",
          "name": "",
          "type": "address"
        }
      ],
      "stateMutability": "view",
      "type": "function"
    },
    {
      "inputs": [
        {
          "internalType": "address",
          "name": "",
          "type": "address"
        }
      ],
      "name": "busdGrants",
      "outputs": [
        {
          "internalType": "uint256",
          "name": "startTime",
          "type": "uint256"
        },
        {
          "internalType": "uint256",
          "name": "amount",
          "type": "uint256"
        },
        {
          "internalType": "uint16",
          "name": "vestingDuration",
          "type": "uint16"
        },
        {
          "internalType": "uint16",
          "name": "intervalsClaimed",
          "type": "uint16"
        },
        {
          "internalType": "uint256",
          "name": "totalClaimed",
          "type": "uint256"
        }
      ],
      "stateMutability": "view",
      "type": "function"
    },
    {
      "inputs": [
        {
          "internalType": "uint256",
          "name": "busdAmount",
          "type": "uint256"
        }
      ],
      "name": "buy",
      "outputs": [],
      "stateMutability": "nonpayable",
      "type": "function"
    },
    {
      "inputs": [
        {
          "internalType": "address",
          "name": "_recipient",
          "type": "address"
        }
      ],
      "name": "calculateGrantClaim",
      "outputs": [
        {
          "internalType": "uint16",
          "name": "",
          "type": "uint16"
        },
        {
          "internalType": "uint256",
          "name": "",
          "type": "uint256"
        }
      ],
      "stateMutability": "view",
      "type": "function"
    },
    {
      "inputs": [],
      "name": "claimVestedBusd",
      "outputs": [],
      "stateMutability": "nonpayable",
      "type": "function"
    },
    {
      "inputs": [],
      "name": "duration",
      "outputs": [
        {
          "internalType": "uint256",
          "name": "",
          "type": "uint256"
        }
      ],
      "stateMutability": "view",
      "type": "function"
    },
    {
      "inputs": [],
      "name": "end",
      "outputs": [
        {
          "internalType": "uint256",
          "name": "",
          "type": "uint256"
        }
      ],
      "stateMutability": "view",
      "type": "function"
    },
    {
      "inputs": [
        {
          "internalType": "uint16",
          "name": "vestingDuration",
          "type": "uint16"
        }
      ],
      "name": "initiateBusdVesting",
      "outputs": [],
      "stateMutability": "nonpayable",
      "type": "function"
    },
    {
      "inputs": [],
      "name": "maxPurchase",
      "outputs": [
        {
          "internalType": "uint256",
          "name": "",
          "type": "uint256"
        }
      ],
      "stateMutability": "view",
      "type": "function"
    },
    {
      "inputs": [],
      "name": "minPurchase",
      "outputs": [
        {
          "internalType": "uint256",
          "name": "",
          "type": "uint256"
        }
      ],
      "stateMutability": "view",
      "type": "function"
    },
    {
      "inputs": [],
      "name": "price",
      "outputs": [
        {
          "internalType": "uint256",
          "name": "",
          "type": "uint256"
        }
      ],
      "stateMutability": "view",
      "type": "function"
    },
    {
      "inputs": [],
      "name": "redeemNft",
      "outputs": [
        {
          "internalType": "string",
          "name": "",
          "type": "string"
        }
      ],
      "stateMutability": "nonpayable",
      "type": "function"
    },
    {
      "inputs": [
        {
          "internalType": "address",
          "name": "_recipient",
          "type": "address"
        }
      ],
      "name": "removeBusdGrant",
      "outputs": [],
      "stateMutability": "nonpayable",
      "type": "function"
    },
    {
      "inputs": [
        {
          "internalType": "address",
          "name": "",
          "type": "address"
        }
      ],
      "name": "sales",
      "outputs": [
        {
          "internalType": "address",
          "name": "investor",
          "type": "address"
        },
        {
          "internalType": "uint256",
          "name": "amount",
          "type": "uint256"
        },
        {
          "internalType": "bool",
          "name": "tokensWithdrawn",
          "type": "bool"
        }
      ],
      "stateMutability": "view",
      "type": "function"
    },
    {
      "inputs": [
        {
          "internalType": "address",
          "name": "deployedNft",
          "type": "address"
        }
      ],
      "name": "setNftAddress",
      "outputs": [],
      "stateMutability": "nonpayable",
      "type": "function"
    },
    {
      "inputs": [],
      "name": "start",
      "outputs": [],
      "stateMutability": "nonpayable",
      "type": "function"
    },
    {
      "inputs": [],
      "name": "token",
      "outputs": [
        {
          "internalType": "contract Token",
          "name": "",
          "type": "address"
        }
      ],
      "stateMutability": "view",
      "type": "function"
    },
    {
      "inputs": [],
      "name": "vestingInterval",
      "outputs": [
        {
          "internalType": "uint256",
          "name": "",
          "type": "uint256"
        }
      ],
      "stateMutability": "view",
      "type": "function"
    },
    {
      "inputs": [],
      "name": "withdrawTokens",
      "outputs": [],
      "stateMutability": "nonpayable",
      "type": "function"
    }
  ],
  "bytecode": "0x60806040523480156200001157600080fd5b5060405162001da638038062001da68339810160408190526200003491620001d8565b600c80546001600160a01b03808c166001600160a01b031992831617909255600d805492861692821692909217909155600a8054909116905587620000965760405162461bcd60e51b81526004016200008d90620002d2565b60405180910390fd5b600086118015620001305750600c60009054906101000a90046001600160a01b03166001600160a01b0316632ab4d0526040518163ffffffff1660e01b815260040160206040518083038186803b158015620000f157600080fd5b505afa15801562000106573d6000803e3d6000fd5b505050506040513d601f19601f820116820180604052508101906200012c91906200025c565b8611155b6200014f5760405162461bcd60e51b81526004016200008d9062000275565b60008511620001725760405162461bcd60e51b81526004016200008d9062000309565b600980546001600160a01b039093166001600160a01b0319938416179055600b556002805490911633179055506004949094556005929092556006556007556008555062000340565b80516001600160a01b0381168114620001d357600080fd5b919050565b60008060008060008060008060006101208a8c031215620001f7578485fd5b620002028a620001bb565b985060208a0151975060408a0151965060608a0151955060808a0151945060a08a015193506200023560c08b01620001bb565b92506200024560e08b01620001bb565b91506101008a015190509295985092959850929598565b6000602082840312156200026e578081fd5b5051919050565b60208082526034908201527f5f617661696c61626c65546f6b656e732073686f756c64206265203e2030206160408201527f6e64203c3d206d6178546f74616c537570706c79000000000000000000000000606082015260800190565b60208082526016908201527f6475726174696f6e2073686f756c64206265203e203000000000000000000000604082015260600190565b60208082526017908201527f5f6d696e50757263686173652073686f756c64203e2030000000000000000000604082015260600190565b611a5680620003506000396000f3fe608060405234801561001057600080fd5b50600436106101425760003560e01c8063a035b1fe116100b8578063d96a094a1161007c578063d96a094a14610250578063efbe1c1c14610263578063f851a4401461026b578063fc0c546a14610273578063fd75b8d41461027b578063fec934cc1461029c57610142565b8063a035b1fe14610203578063a8398fd21461020b578063b8e50cab1461021e578063be9a655514610226578063c6b9f06a1461022e57610142565b806333b5b62e1161010a57806333b5b62e146101c65780633ca5b234146101ce57806369bb4dc2146101e357806382f49f23146101eb5780638d8f2adb146101f3578063977b055b146101fb57610142565b80630b102d1a146101475780630fb5a6b41461015c57806320a6ba951461017a57806322cc5fc11461018f5780632c04c381146101a2575b600080fd5b61015a6101553660046112db565b6102af565b005b610164610304565b6040516101719190611910565b60405180910390f35b61018261030a565b6040516101719190611532565b61015a61019d3660046112db565b6104be565b6101b56101b03660046112db565b6106d8565b604051610171959493929190611919565b61016461070f565b6101d6610715565b6040516101719190611473565b610164610724565b61015a61072a565b61015a610881565b6101646109af565b6101646109b5565b61015a6102193660046113fd565b6109bb565b610164610abb565b61015a610ac1565b61024161023c3660046112db565b610b1d565b604051610171939291906114c4565b61015a61025e366004611417565b610b4b565b610164610d7c565b6101d6610d82565b6101d6610d91565b61028e6102893660046112db565b610da0565b6040516101719291906118fc565b61015a6102aa3660046112f5565b610ea4565b6002546001600160a01b031633146102e25760405162461bcd60e51b81526004016102d9906116c0565b60405180910390fd5b600a80546001600160a01b0319166001600160a01b0392909216919091179055565b60045481565b6060600060035411801561032a57506003544210158061032a5750600654155b6103465760405162461bcd60e51b81526004016102d9906115bb565b600a546001600160a01b031661036e5760405162461bcd60e51b81526004016102d99061182c565b336000908152602081905260409020600554600182015461038f91906119ad565b50600a54600e80546001600160a01b0319166001600160a01b0392831617908190556040516354ba0f2760e01b815260009291909116906354ba0f27906103da903390600401611473565b602060405180830381600087803b1580156103f457600080fd5b505af1158015610408573d6000803e3d6000fd5b505050506040513d601f19601f8201168201806040525081019061042c919061142f565b600e5460405163c87b56dd60e01b81529192506000916001600160a01b039091169063c87b56dd90610462908590600401611910565b60006040518083038186803b15801561047a57600080fd5b505afa15801561048e573d6000803e3d6000fd5b505050506040513d6000823e601f3d908101601f191682016040526104b6919081019061135a565b935050505090565b6002546001600160a01b031633146104e85760405162461bcd60e51b81526004016102d9906116c0565b6001600160a01b0381166000908152600160205260408120908061050b84610da0565b8092508193505050600061053061052a856001015486600301546110c2565b836110c2565b600d5460405163a9059cbb60e01b81529192506001600160a01b03169063a9059cbb9061056390889086906004016114ab565b602060405180830381600087803b15801561057d57600080fd5b505af1158015610591573d6000803e3d6000fd5b505050506040513d601f19601f820116820180604052508101906105b5919061133a565b6105d15760405162461bcd60e51b81526004016102d990611616565b600d5460025460405163a9059cbb60e01b81526001600160a01b039283169263a9059cbb926106079291169085906004016114ab565b602060405180830381600087803b15801561062157600080fd5b505af1158015610635573d6000803e3d6000fd5b505050506040513d601f19601f82011682018060405250810190610659919061133a565b6106755760405162461bcd60e51b81526004016102d9906116e4565b60008085556001850181905560028501805463ffffffff1916905560038501556040517f8f1462bc75233ee60d368eb1925fc2a7f205e6a8ef562c9bdf9c06db8b41aa76906106c9908790859085906114e7565b60405180910390a15050505050565b60016020819052600091825260409091208054918101546002820154600390920154909161ffff8082169262010000909204169085565b60075481565b600d546001600160a01b031681565b60065481565b60008061073633610da0565b9092509050806107585760405162461bcd60e51b81526004016102d9906117f5565b33600090815260016020526040902060028101546107849061ffff6201000090910481169085166110f6565b8160020160026101000a81548161ffff021916908361ffff1602179055506107b08160030154836110f6565b60038201556107be82611124565b600d5460405163a9059cbb60e01b81526001600160a01b039091169063a9059cbb906107f090339086906004016114ab565b602060405180830381600087803b15801561080a57600080fd5b505af115801561081e573d6000803e3d6000fd5b505050506040513d601f19601f82011682018060405250810190610842919061133a565b507fc6cbb4aa8681b18644bf64921eea8f2b9f44cbd58d64fc07a110bfccc203829633836040516108749291906114ab565b60405180910390a1505050565b600060035411801561089f57506003544210158061089f5750600654155b6108bb5760405162461bcd60e51b81526004016102d9906115bb565b33600090815260208190526040902060018101546108eb5760405162461bcd60e51b81526004016102d9906117cd565b600281015460ff16156109105760405162461bcd60e51b81526004016102d99061188e565b60028101805460ff19166001908117909155600c5482549183015460405163a9059cbb60e01b81526001600160a01b039283169363a9059cbb93610959939116916004016114ab565b602060405180830381600087803b15801561097357600080fd5b505af1158015610987573d6000803e3d6000fd5b505050506040513d601f19601f820116820180604052508101906109ab919061133a565b5050565b60085481565b60055481565b6002546001600160a01b031633146109e55760405162461bcd60e51b81526004016102d9906116c0565b6000600354118015610a03575060035442101580610a035750600654155b610a1f5760405162461bcd60e51b81526004016102d9906115bb565b600d546040516370a0823160e01b81526000916001600160a01b0316906370a0823190610a50903090600401611473565b60206040518083038186803b158015610a6857600080fd5b505afa158015610a7c573d6000803e3d6000fd5b505050506040513d601f19601f82011682018060405250810190610aa0919061142f565b6009549091506109ab906001600160a01b0316428385610ea4565b600b5481565b6002546001600160a01b03163314610aeb5760405162461bcd60e51b81526004016102d9906116c0565b60035415610b0b5760405162461bcd60e51b81526004016102d990611857565b600454610b189042611956565b600355565b6000602081905290815260409020805460018201546002909201546001600160a01b03909116919060ff1683565b6000600354118015610b5e575060035442105b8015610b6c57506000600654115b610b885760405162461bcd60e51b81526004016102d99061171b565b6007548110158015610b9c57506008548111155b610bb85760405162461bcd60e51b81526004016102d99061177e565b6000610bcf6005548361116a90919063ffffffff16565b9050600654811115610bf35760405162461bcd60e51b81526004016102d990611747565b600d546040516323b872dd60e01b81526001600160a01b03909116906323b872dd90610c2790339030908790600401611487565b602060405180830381600087803b158015610c4157600080fd5b505af1158015610c55573d6000803e3d6000fd5b505050506040513d601f19601f82011682018060405250810190610c79919061133a565b50600c546040516340c10f1960e01b81526001600160a01b03909116906340c10f1990610cac90309085906004016114ab565b600060405180830381600087803b158015610cc657600080fd5b505af1158015610cda573d6000803e3d6000fd5b5050336000908152602081905260409020600181015490925015159050610d615760408051606081018252338082526020808301868152600084860181815293815291829052939020915182546001600160a01b0319166001600160a01b039091161782559151600182015590516002909101805460ff1916911515919091179055610d77565b818160010154610d719190611956565b60018201555b505050565b60035481565b6002546001600160a01b031681565b600c546001600160a01b031681565b6001600160a01b03811660009081526001602052604081208054829190421015610dd1576000809250925050610e9f565b6000610de14283600001546110c2565b90506000600b5482610df3919061196e565b9050610e048142856000015461117d565b600283015461ffff168110610e4157600083600301548460010154610e2991906119ad565b60029094015461ffff169550929350610e9f92505050565b6002830154600090610e5e90839062010000900461ffff166110c2565b60028501546001860154919250600091610e7c9161ffff169061196e565b90506000610e8e8361ffff16836111c4565b929750919550610e9f945050505050565b915091565b6002546001600160a01b03163314610ece5760405162461bcd60e51b81526004016102d9906116c0565b6001600160a01b038416600090815260016020526040902054849015610f065760405162461bcd60e51b81526004016102d9906118c5565b6000610f1661ffff84168561196e565b905060008111610f385760405162461bcd60e51b81526004016102d99061164d565b610f6560405180604001604052806008815260200167030b6b7bab73a1d160c51b81525085600b54611204565b60006040518060a0016040528087600014610f805787610f82565b425b81526020018681526020018561ffff168152602001600061ffff16815260200160008152509050610fdf6040518060400160405280600d81526020016c18dc99585d19590819dc985b9d609a1b8152508260200151600b54611204565b6001600160a01b038716600090815260016020818152604092839020845181558185015192810183905583850151600282018054606088015161ffff908116620100000263ffff0000199190941661ffff199092169190911716919091179055608085015160038201558351808501909452600f84526e1c995d1c9a595d99590819dc985b9d608a1b91840191909152916110799161124b565b81516040517f57c6a7bc9955aca2b27dc2d36a450085ff46a0bded448124bb98213a5661b8f2916110b0918b91908a908a90611508565b60405180910390a15050505050505050565b6000826110cf83826119ad565b91508111156110f05760405162461bcd60e51b81526004016102d99061158c565b92915050565b6000826111038382611956565b91508110156110f05760405162461bcd60e51b81526004016102d990611692565b611167816040516024016111389190611910565b60408051601f198184030181529190526020810180516001600160e01b031663f5b1bba960e01b17905261128c565b50565b6000611176828461196e565b9392505050565b610d7783838360405160240161119593929190611940565b60408051601f198184030181529190526020810180516001600160e01b03166339e0829d60e21b17905261128c565b60008115806111e8575082826111da818361198e565b92506111e6908361196e565b145b6110f05760405162461bcd60e51b81526004016102d9906115e8565b610d7783838360405160240161121c93929190611567565b60408051601f198184030181529190526020810180516001600160e01b031663969cdd0360e01b17905261128c565b6109ab8282604051602401611261929190611545565b60408051601f198184030181529190526020810180516001600160e01b03166309710a9d60e41b1790525b80516a636f6e736f6c652e6c6f67602083016000808483855afa5050505050565b80356001600160a01b03811681146112c457600080fd5b919050565b803561ffff811681146112c457600080fd5b6000602082840312156112ec578081fd5b611176826112ad565b6000806000806080858703121561130a578283fd5b611313856112ad565b9350602085013592506040850135915061132f606086016112c9565b905092959194509250565b60006020828403121561134b578081fd5b81518015158114611176578182fd5b60006020828403121561136b578081fd5b815167ffffffffffffffff80821115611382578283fd5b818401915084601f830112611395578283fd5b8151818111156113a7576113a7611a0a565b604051601f8201601f1916810160200183811182821017156113cb576113cb611a0a565b6040528181528382016020018710156113e2578485fd5b6113f38260208301602087016119c4565b9695505050505050565b60006020828403121561140e578081fd5b611176826112c9565b600060208284031215611428578081fd5b5035919050565b600060208284031215611440578081fd5b5051919050565b6000815180845261145f8160208601602086016119c4565b601f01601f19169290920160200192915050565b6001600160a01b0391909116815260200190565b6001600160a01b039384168152919092166020820152604081019190915260600190565b6001600160a01b03929092168252602082015260400190565b6001600160a01b0393909316835260208301919091521515604082015260600190565b6001600160a01b039390931683526020830191909152604082015260600190565b6001600160a01b039490941684526020840192909252604083015261ffff16606082015260800190565b6000602082526111766020830184611447565b6000604082526115586040830185611447565b90508260208301529392505050565b60006060825261157a6060830186611447565b60208301949094525060400152919050565b60208082526015908201527464732d6d6174682d7375622d756e646572666c6f7760581b604082015260600190565b6020808252601390820152721250d3c81b5d5cdd081a185d9948195b991959606a1b604082015260600190565b60208082526014908201527364732d6d6174682d6d756c2d6f766572666c6f7760601b604082015260600190565b6020808252601f908201527f746f6b656e2d726563697069656e742d7472616e736665722d6661696c656400604082015260600190565b60208082526025908201527f746f6b656e2d7a65726f2d616d6f756e742d7665737465642d7065722d696e74604082015264195c9d985b60da1b606082015260800190565b60208082526014908201527364732d6d6174682d6164642d6f766572666c6f7760601b604082015260600190565b6020808252600a908201526937b7363c9030b236b4b760b11b604082015260600190565b6020808252601e908201527f746f6b656e2d6d756c74697369672d7472616e736665722d6661696c65640000604082015260600190565b60208082526012908201527149434f206d7573742062652061637469766560701b604082015260600190565b6020808252601f908201527f4e6f7420656e6f75676820746f6b656e73206c65667420666f722073616c6500604082015260600190565b6020808252602f908201527f6861766520746f20627579206265747765656e206d696e50757263686173652060408201526e616e64206d6178507572636861736560881b606082015260800190565b6020808252600e908201526d6f6e6c7920696e766573746f727360901b604082015260600190565b60208082526018908201527f746f6b656e2d7a65726f2d616d6f756e742d7665737465640000000000000000604082015260600190565b6020808252601190820152704e4654204d75737420626520726561647960781b604082015260600190565b60208082526018908201527f49434f2073686f756c64206e6f74206265206163746976650000000000000000604082015260600190565b6020808252601d908201527f746f6b656e73207765726520616c72656164792077697468647261776e000000604082015260600190565b60208082526017908201527f746f6b656e2d757365722d6772616e742d657869737473000000000000000000604082015260600190565b61ffff929092168252602082015260400190565b90815260200190565b948552602085019390935261ffff9182166040850152166060830152608082015260a00190565b9283526020830191909152604082015260600190565b60008219821115611969576119696119f4565b500190565b60008261198957634e487b7160e01b81526012600452602481fd5b500490565b60008160001904831182151516156119a8576119a86119f4565b500290565b6000828210156119bf576119bf6119f4565b500390565b60005b838110156119df5781810151838201526020016119c7565b838111156119ee576000848401525b50505050565b634e487b7160e01b600052601160045260246000fd5b634e487b7160e01b600052604160045260246000fdfea2646970667358221220ebc9d7fd57ede6f0c5387faa3a4df368d39466b0cc429c370816c95bb323af5064736f6c63430008000033",
  "linkReferences": {},
  "deployedLinkReferences": {}
}