{
  "_format": "hh-sol-artifact-1",
  "contractName": "ICO",
  "sourceName": "contracts/ICO.sol",
  "abi": [
    {
      "inputs": [
        {
          "internalType": "address",
          "name": "tokenAddress",
          "type": "address"
        },
        {
          "internalType": "uint256",
          "name": "_duration",
          "type": "uint256"
        },
        {
          "internalType": "uint256",
          "name": "_price",
          "type": "uint256"
        },
        {
          "internalType": "uint256",
          "name": "_availableTokens",
          "type": "uint256"
        },
        {
          "internalType": "uint256",
          "name": "_minPurchase",
          "type": "uint256"
        },
        {
          "internalType": "uint256",
          "name": "_maxPurchase",
          "type": "uint256"
        },
        {
          "internalType": "address",
          "name": "daiAddress",
          "type": "address"
        }
      ],
      "stateMutability": "nonpayable",
      "type": "constructor"
    },
    {
      "inputs": [],
      "name": "admin",
      "outputs": [
        {
          "internalType": "address",
          "name": "",
          "type": "address"
        }
      ],
      "stateMutability": "view",
      "type": "function"
    },
    {
      "inputs": [],
      "name": "availableTokens",
      "outputs": [
        {
          "internalType": "uint256",
          "name": "",
          "type": "uint256"
        }
      ],
      "stateMutability": "view",
      "type": "function"
    },
    {
      "inputs": [
        {
          "internalType": "uint256",
          "name": "daiAmount",
          "type": "uint256"
        }
      ],
      "name": "buy",
      "outputs": [],
      "stateMutability": "nonpayable",
      "type": "function"
    },
    {
      "inputs": [],
      "name": "dai",
      "outputs": [
        {
          "internalType": "contract IERC20",
          "name": "",
          "type": "address"
        }
      ],
      "stateMutability": "view",
      "type": "function"
    },
    {
      "inputs": [],
      "name": "duration",
      "outputs": [
        {
          "internalType": "uint256",
          "name": "",
          "type": "uint256"
        }
      ],
      "stateMutability": "view",
      "type": "function"
    },
    {
      "inputs": [],
      "name": "end",
      "outputs": [
        {
          "internalType": "uint256",
          "name": "",
          "type": "uint256"
        }
      ],
      "stateMutability": "view",
      "type": "function"
    },
    {
      "inputs": [],
      "name": "maxPurchase",
      "outputs": [
        {
          "internalType": "uint256",
          "name": "",
          "type": "uint256"
        }
      ],
      "stateMutability": "view",
      "type": "function"
    },
    {
      "inputs": [],
      "name": "minPurchase",
      "outputs": [
        {
          "internalType": "uint256",
          "name": "",
          "type": "uint256"
        }
      ],
      "stateMutability": "view",
      "type": "function"
    },
    {
      "inputs": [],
      "name": "price",
      "outputs": [
        {
          "internalType": "uint256",
          "name": "",
          "type": "uint256"
        }
      ],
      "stateMutability": "view",
      "type": "function"
    },
    {
      "inputs": [
        {
          "internalType": "address",
          "name": "",
          "type": "address"
        }
      ],
      "name": "sales",
      "outputs": [
        {
          "internalType": "address",
          "name": "investor",
          "type": "address"
        },
        {
          "internalType": "uint256",
          "name": "amount",
          "type": "uint256"
        },
        {
          "internalType": "bool",
          "name": "tokensWithdrawn",
          "type": "bool"
        }
      ],
      "stateMutability": "view",
      "type": "function"
    },
    {
      "inputs": [],
      "name": "start",
      "outputs": [],
      "stateMutability": "nonpayable",
      "type": "function"
    },
    {
      "inputs": [],
      "name": "token",
      "outputs": [
        {
          "internalType": "contract Token",
          "name": "",
          "type": "address"
        }
      ],
      "stateMutability": "view",
      "type": "function"
    },
    {
      "inputs": [
        {
          "internalType": "uint256",
          "name": "amount",
          "type": "uint256"
        }
      ],
      "name": "withdrawDai",
      "outputs": [],
      "stateMutability": "nonpayable",
      "type": "function"
    },
    {
      "inputs": [],
      "name": "withdrawTokens",
      "outputs": [],
      "stateMutability": "nonpayable",
      "type": "function"
    }
  ],
  "bytecode": "0x60806040523480156200001157600080fd5b5060405162000cec38038062000cec8339810160408190526200003491620001e5565b600880546001600160a01b03808a166001600160a01b0319928316179092556009805492841692909116919091179055856200008d5760405162461bcd60e51b8152600401620000849062000314565b60405180910390fd5b600084118015620001275750600860009054906101000a90046001600160a01b03166001600160a01b0316632ab4d0526040518163ffffffff1660e01b815260040160206040518083038186803b158015620000e857600080fd5b505afa158015620000fd573d6000803e3d6000fd5b505050506040513d601f19601f820116820180604052508101906200012391906200024c565b8411155b620001465760405162461bcd60e51b8152600401620000849062000265565b60008311620001695760405162461bcd60e51b815260040162000084906200034b565b6000821180156200017a5750838211155b620001995760405162461bcd60e51b81526004016200008490620002c2565b50600180546001600160a01b031916331790556003949094556004929092556005556006556007555062000382565b80516001600160a01b0381168114620001e057600080fd5b919050565b600080600080600080600060e0888a03121562000200578283fd5b6200020b88620001c8565b96506020880151955060408801519450606088015193506080880151925060a088015191506200023e60c08901620001c8565b905092959891949750929550565b6000602082840312156200025e578081fd5b5051919050565b60208082526034908201527f5f617661696c61626c65546f6b656e732073686f756c64206265203e2030206160408201527f6e64203c3d206d6178546f74616c537570706c79000000000000000000000000606082015260800190565b60208082526032908201527f5f6d617850757263686173652073686f756c64206265203e203020616e64203c6040820152713d205f617661696c61626c65546f6b656e7360701b606082015260800190565b60208082526016908201527f6475726174696f6e2073686f756c64206265203e203000000000000000000000604082015260600190565b60208082526017908201527f5f6d696e50757263686173652073686f756c64203e2030000000000000000000604082015260600190565b61095a80620003926000396000f3fe608060405234801561001057600080fd5b50600436106100ea5760003560e01c8063be9a65551161008c578063efbe1c1c11610066578063efbe1c1c14610187578063f4b9fa751461018f578063f851a440146101a4578063fc0c546a146101ac576100ea565b8063be9a65551461014a578063c6b9f06a14610152578063d96a094a14610174576100ea565b80638d8f2adb116100c85780638d8f2adb1461011d57806393a991af14610127578063977b055b1461013a578063a035b1fe14610142576100ea565b80630fb5a6b4146100ef57806333b5b62e1461010d57806369bb4dc214610115575b600080fd5b6100f76101b4565b60405161010491906108d7565b60405180910390f35b6100f76101ba565b6100f76101c0565b6101256101c6565b005b6101256101353660046106b2565b6102fd565b6100f7610397565b6100f761039d565b6101256103a3565b61016561016036600461066b565b6103ff565b6040516101049392919061071b565b6101256101823660046106b2565b61042d565b6100f7610625565b61019761062b565b60405161010491906106ca565b61019761063a565b610197610649565b60035481565b60065481565b60055481565b60006002541180156101e45750600254421015806101e45750600554155b6102095760405162461bcd60e51b81526004016102009061073e565b60405180910390fd5b33600090815260208190526040902060018101546102395760405162461bcd60e51b815260040161020090610841565b600281015460ff161561025e5760405162461bcd60e51b8152600401610200906108a0565b60028101805460ff1916600190811790915560085482549183015460405163a9059cbb60e01b81526001600160a01b039283169363a9059cbb936102a793911691600401610702565b602060405180830381600087803b1580156102c157600080fd5b505af11580156102d5573d6000803e3d6000fd5b505050506040513d601f19601f820116820180604052508101906102f99190610692565b5050565b6001546001600160a01b031633146103275760405162461bcd60e51b81526004016102009061076b565b60006002541180156103455750600254421015806103455750600554155b6103615760405162461bcd60e51b81526004016102009061073e565b60095460015460405163a9059cbb60e01b81526001600160a01b039283169263a9059cbb926102a7929116908590600401610702565b60075481565b60045481565b6001546001600160a01b031633146103cd5760405162461bcd60e51b81526004016102009061076b565b600254156103ed5760405162461bcd60e51b815260040161020090610869565b6003546103fa90426108e0565b600255565b6000602081905290815260409020805460018201546002909201546001600160a01b03909116919060ff1683565b6000600254118015610440575060025442105b801561044e57506000600554115b61046a5760405162461bcd60e51b81526004016102009061078f565b600654811015801561047e57506007548111155b61049a5760405162461bcd60e51b8152600401610200906107f2565b60006104b16004548361065890919063ffffffff16565b90506005548111156104d55760405162461bcd60e51b8152600401610200906107bb565b6009546040516323b872dd60e01b81526001600160a01b03909116906323b872dd90610509903390309087906004016106de565b602060405180830381600087803b15801561052357600080fd5b505af1158015610537573d6000803e3d6000fd5b505050506040513d601f19601f8201168201806040525081019061055b9190610692565b506008546040516340c10f1960e01b81526001600160a01b03909116906340c10f199061058e9030908590600401610702565b600060405180830381600087803b1580156105a857600080fd5b505af11580156105bc573d6000803e3d6000fd5b50506040805160608101825233808252602080830196875260008385018181529281529081905292909220905181546001600160a01b0319166001600160a01b0390911617815593516001850155516002909301805460ff191693151593909317909255505050565b60025481565b6009546001600160a01b031681565b6001546001600160a01b031681565b6008546001600160a01b031681565b60006106648284610904565b9392505050565b60006020828403121561067c578081fd5b81356001600160a01b0381168114610664578182fd5b6000602082840312156106a3578081fd5b81518015158114610664578182fd5b6000602082840312156106c3578081fd5b5035919050565b6001600160a01b0391909116815260200190565b6001600160a01b039384168152919092166020820152604081019190915260600190565b6001600160a01b03929092168252602082015260400190565b6001600160a01b0393909316835260208301919091521515604082015260600190565b6020808252601390820152721250d3c81b5d5cdd081a185d9948195b991959606a1b604082015260600190565b6020808252600a908201526937b7363c9030b236b4b760b11b604082015260600190565b60208082526012908201527149434f206d7573742062652061637469766560701b604082015260600190565b6020808252601f908201527f4e6f7420656e6f75676820746f6b656e73206c65667420666f722073616c6500604082015260600190565b6020808252602f908201527f6861766520746f20627579206265747765656e206d696e50757263686173652060408201526e616e64206d6178507572636861736560881b606082015260800190565b6020808252600e908201526d6f6e6c7920696e766573746f727360901b604082015260600190565b60208082526018908201527f49434f2073686f756c64206e6f74206265206163746976650000000000000000604082015260600190565b6020808252601d908201527f746f6b656e73207765726520616c72656164792077697468647261776e000000604082015260600190565b90815260200190565b600082198211156108ff57634e487b7160e01b81526011600452602481fd5b500190565b60008261091f57634e487b7160e01b81526012600452602481fd5b50049056fea2646970667358221220064b4eec144a319db6d6e73d0b0fc56df4adf6f8adf8bc762a38986e2b117efb64736f6c63430008000033",
  "linkReferences": {},
  "deployedLinkReferences": {}
}