{
  "_format": "hh-sol-artifact-1",
  "contractName": "ICO",
  "sourceName": "contracts/ICO.sol",
  "abi": [
    {
      "inputs": [
        {
          "internalType": "address",
          "name": "tokenAddress",
          "type": "address"
        },
        {
          "internalType": "uint256",
          "name": "_duration",
          "type": "uint256"
        },
        {
          "internalType": "uint256",
          "name": "_price",
          "type": "uint256"
        },
        {
          "internalType": "uint256",
          "name": "_availableTokens",
          "type": "uint256"
        },
        {
          "internalType": "uint256",
          "name": "_minPurchase",
          "type": "uint256"
        },
        {
          "internalType": "uint256",
          "name": "_maxPurchase",
          "type": "uint256"
        },
        {
          "internalType": "address",
          "name": "busdAddress",
          "type": "address"
        },
        {
          "internalType": "address",
          "name": "_authorAddress",
          "type": "address"
        },
        {
          "internalType": "uint256",
          "name": "_vestingInterval",
          "type": "uint256"
        }
      ],
      "stateMutability": "nonpayable",
      "type": "constructor"
    },
    {
      "anonymous": false,
      "inputs": [
        {
          "indexed": false,
          "internalType": "address",
          "name": "recipient",
          "type": "address"
        },
        {
          "indexed": false,
          "internalType": "uint256",
          "name": "startTime",
          "type": "uint256"
        },
        {
          "indexed": false,
          "internalType": "uint256",
          "name": "amount",
          "type": "uint256"
        },
        {
          "indexed": false,
          "internalType": "uint16",
          "name": "vestingDuration",
          "type": "uint16"
        }
      ],
      "name": "GrantAdded",
      "type": "event"
    },
    {
      "anonymous": false,
      "inputs": [
        {
          "indexed": false,
          "internalType": "address",
          "name": "recipient",
          "type": "address"
        },
        {
          "indexed": false,
          "internalType": "uint256",
          "name": "amountVested",
          "type": "uint256"
        },
        {
          "indexed": false,
          "internalType": "uint256",
          "name": "amountNotVested",
          "type": "uint256"
        }
      ],
      "name": "GrantRemoved",
      "type": "event"
    },
    {
      "anonymous": false,
      "inputs": [
        {
          "indexed": false,
          "internalType": "address",
          "name": "recipient",
          "type": "address"
        },
        {
          "indexed": false,
          "internalType": "uint256",
          "name": "amountClaimed",
          "type": "uint256"
        }
      ],
      "name": "GrantTokensClaimed",
      "type": "event"
    },
    {
      "inputs": [
        {
          "internalType": "address",
          "name": "_recipient",
          "type": "address"
        },
        {
          "internalType": "uint256",
          "name": "_startTime",
          "type": "uint256"
        },
        {
          "internalType": "uint256",
          "name": "_amount",
          "type": "uint256"
        },
        {
          "internalType": "uint16",
          "name": "_vestingDuration",
          "type": "uint16"
        }
      ],
      "name": "addBusdGrant",
      "outputs": [],
      "stateMutability": "nonpayable",
      "type": "function"
    },
    {
      "inputs": [],
      "name": "admin",
      "outputs": [
        {
          "internalType": "address",
          "name": "",
          "type": "address"
        }
      ],
      "stateMutability": "view",
      "type": "function"
    },
    {
      "inputs": [],
      "name": "availableTokens",
      "outputs": [
        {
          "internalType": "uint256",
          "name": "",
          "type": "uint256"
        }
      ],
      "stateMutability": "view",
      "type": "function"
    },
    {
      "inputs": [],
      "name": "busd",
      "outputs": [
        {
          "internalType": "contract Token",
          "name": "",
          "type": "address"
        }
      ],
      "stateMutability": "view",
      "type": "function"
    },
    {
      "inputs": [
        {
          "internalType": "address",
          "name": "",
          "type": "address"
        }
      ],
      "name": "busdGrants",
      "outputs": [
        {
          "internalType": "uint256",
          "name": "startTime",
          "type": "uint256"
        },
        {
          "internalType": "uint256",
          "name": "amount",
          "type": "uint256"
        },
        {
          "internalType": "uint16",
          "name": "vestingDuration",
          "type": "uint16"
        },
        {
          "internalType": "uint16",
          "name": "intervalsClaimed",
          "type": "uint16"
        },
        {
          "internalType": "uint256",
          "name": "totalClaimed",
          "type": "uint256"
        }
      ],
      "stateMutability": "view",
      "type": "function"
    },
    {
      "inputs": [
        {
          "internalType": "uint256",
          "name": "busdAmount",
          "type": "uint256"
        }
      ],
      "name": "buy",
      "outputs": [],
      "stateMutability": "nonpayable",
      "type": "function"
    },
    {
      "inputs": [
        {
          "internalType": "address",
          "name": "_recipient",
          "type": "address"
        }
      ],
      "name": "calculateGrantClaim",
      "outputs": [
        {
          "internalType": "uint16",
          "name": "",
          "type": "uint16"
        },
        {
          "internalType": "uint256",
          "name": "",
          "type": "uint256"
        }
      ],
      "stateMutability": "view",
      "type": "function"
    },
    {
      "inputs": [],
      "name": "claimVestedBusd",
      "outputs": [],
      "stateMutability": "nonpayable",
      "type": "function"
    },
    {
      "inputs": [],
      "name": "duration",
      "outputs": [
        {
          "internalType": "uint256",
          "name": "",
          "type": "uint256"
        }
      ],
      "stateMutability": "view",
      "type": "function"
    },
    {
      "inputs": [],
      "name": "end",
      "outputs": [
        {
          "internalType": "uint256",
          "name": "",
          "type": "uint256"
        }
      ],
      "stateMutability": "view",
      "type": "function"
    },
    {
      "inputs": [
        {
          "internalType": "uint16",
          "name": "vestingDuration",
          "type": "uint16"
        }
      ],
      "name": "initiateBusdVesting",
      "outputs": [],
      "stateMutability": "nonpayable",
      "type": "function"
    },
    {
      "inputs": [],
      "name": "maxPurchase",
      "outputs": [
        {
          "internalType": "uint256",
          "name": "",
          "type": "uint256"
        }
      ],
      "stateMutability": "view",
      "type": "function"
    },
    {
      "inputs": [],
      "name": "minPurchase",
      "outputs": [
        {
          "internalType": "uint256",
          "name": "",
          "type": "uint256"
        }
      ],
      "stateMutability": "view",
      "type": "function"
    },
    {
      "inputs": [],
      "name": "price",
      "outputs": [
        {
          "internalType": "uint256",
          "name": "",
          "type": "uint256"
        }
      ],
      "stateMutability": "view",
      "type": "function"
    },
    {
      "inputs": [],
      "name": "redeemNft",
      "outputs": [
        {
          "internalType": "uint256",
          "name": "",
          "type": "uint256"
        }
      ],
      "stateMutability": "nonpayable",
      "type": "function"
    },
    {
      "inputs": [
        {
          "internalType": "address",
          "name": "_recipient",
          "type": "address"
        }
      ],
      "name": "removeBusdGrant",
      "outputs": [],
      "stateMutability": "nonpayable",
      "type": "function"
    },
    {
      "inputs": [
        {
          "internalType": "address",
          "name": "",
          "type": "address"
        }
      ],
      "name": "sales",
      "outputs": [
        {
          "internalType": "address",
          "name": "investor",
          "type": "address"
        },
        {
          "internalType": "uint256",
          "name": "amount",
          "type": "uint256"
        },
        {
          "internalType": "bool",
          "name": "tokensWithdrawn",
          "type": "bool"
        }
      ],
      "stateMutability": "view",
      "type": "function"
    },
    {
      "inputs": [
        {
          "internalType": "address",
          "name": "deployedNft",
          "type": "address"
        }
      ],
      "name": "setNftAddress",
      "outputs": [],
      "stateMutability": "nonpayable",
      "type": "function"
    },
    {
      "inputs": [],
      "name": "start",
      "outputs": [],
      "stateMutability": "nonpayable",
      "type": "function"
    },
    {
      "inputs": [],
      "name": "token",
      "outputs": [
        {
          "internalType": "contract Token",
          "name": "",
          "type": "address"
        }
      ],
      "stateMutability": "view",
      "type": "function"
    },
    {
      "inputs": [],
      "name": "vestingInterval",
      "outputs": [
        {
          "internalType": "uint256",
          "name": "",
          "type": "uint256"
        }
      ],
      "stateMutability": "view",
      "type": "function"
    },
    {
      "inputs": [],
      "name": "withdrawTokens",
      "outputs": [],
      "stateMutability": "nonpayable",
      "type": "function"
    }
  ],
  "bytecode": "0x60806040523480156200001157600080fd5b5060405162001c2a38038062001c2a8339810160408190526200003491620001d8565b600c80546001600160a01b03808c166001600160a01b031992831617909255600d805492861692821692909217909155600a8054909116905587620000965760405162461bcd60e51b81526004016200008d90620002d2565b60405180910390fd5b600086118015620001305750600c60009054906101000a90046001600160a01b03166001600160a01b0316632ab4d0526040518163ffffffff1660e01b815260040160206040518083038186803b158015620000f157600080fd5b505afa15801562000106573d6000803e3d6000fd5b505050506040513d601f19601f820116820180604052508101906200012c91906200025c565b8611155b6200014f5760405162461bcd60e51b81526004016200008d9062000275565b60008511620001725760405162461bcd60e51b81526004016200008d9062000309565b600980546001600160a01b039093166001600160a01b0319938416179055600b556002805490911633179055506004949094556005929092556006556007556008555062000340565b80516001600160a01b0381168114620001d357600080fd5b919050565b60008060008060008060008060006101208a8c031215620001f7578485fd5b620002028a620001bb565b985060208a0151975060408a0151965060608a0151955060808a0151945060a08a015193506200023560c08b01620001bb565b92506200024560e08b01620001bb565b91506101008a015190509295985092959850929598565b6000602082840312156200026e578081fd5b5051919050565b60208082526034908201527f5f617661696c61626c65546f6b656e732073686f756c64206265203e2030206160408201527f6e64203c3d206d6178546f74616c537570706c79000000000000000000000000606082015260800190565b60208082526016908201527f6475726174696f6e2073686f756c64206265203e203000000000000000000000604082015260600190565b60208082526017908201527f5f6d696e50757263686173652073686f756c64203e2030000000000000000000604082015260600190565b6118da80620003506000396000f3fe608060405234801561001057600080fd5b50600436106101425760003560e01c8063a035b1fe116100b8578063d96a094a1161007c578063d96a094a14610243578063efbe1c1c14610256578063f851a4401461025e578063fc0c546a14610266578063fd75b8d41461026e578063fec934cc1461028f57610142565b8063a035b1fe146101f6578063a8398fd2146101fe578063b8e50cab14610211578063be9a655514610219578063c6b9f06a1461022157610142565b806333b5b62e1161010a57806333b5b62e146101b95780633ca5b234146101c157806369bb4dc2146101d657806382f49f23146101de5780638d8f2adb146101e6578063977b055b146101ee57610142565b80630b102d1a146101475780630fb5a6b41461015c57806320a6ba951461017a57806322cc5fc1146101825780632c04c38114610195575b600080fd5b61015a61015536600461123c565b6102a2565b005b6101646102f7565b60405161017191906117da565b60405180910390f35b6101646102fd565b61015a61019036600461123c565b61041f565b6101a86101a336600461123c565b610639565b6040516101719594939291906117e3565b610164610670565b6101c9610676565b6040516101719190611350565b610164610685565b61015a61068b565b61015a6107e2565b610164610910565b610164610916565b61015a61020c3660046112bb565b61091c565b610164610a1c565b61015a610a22565b61023461022f36600461123c565b610a7e565b604051610171939291906113a1565b61015a6102513660046112d5565b610aac565b610164610cdd565b6101c9610ce3565b6101c9610cf2565b61028161027c36600461123c565b610d01565b6040516101719291906117c6565b61015a61029d366004611256565b610e05565b6002546001600160a01b031633146102d55760405162461bcd60e51b81526004016102cc9061158a565b60405180910390fd5b600a80546001600160a01b0319166001600160a01b0392909216919091179055565b60045481565b60008060035411801561031c57506003544210158061031c5750600654155b6103385760405162461bcd60e51b81526004016102cc90611485565b600a546001600160a01b03166103605760405162461bcd60e51b81526004016102cc906116f6565b33600090815260208190526040902060055460018201546103819190611877565b50600a54600e80546001600160a01b0319166001600160a01b0392831617908190556040516354ba0f2760e01b81529116906354ba0f27906103c7903390600401611350565b602060405180830381600087803b1580156103e157600080fd5b505af11580156103f5573d6000803e3d6000fd5b505050506040513d601f19601f8201168201806040525081019061041991906112ed565b91505090565b6002546001600160a01b031633146104495760405162461bcd60e51b81526004016102cc9061158a565b6001600160a01b0381166000908152600160205260408120908061046c84610d01565b8092508193505050600061049161048b85600101548660030154611023565b83611023565b600d5460405163a9059cbb60e01b81529192506001600160a01b03169063a9059cbb906104c49088908690600401611388565b602060405180830381600087803b1580156104de57600080fd5b505af11580156104f2573d6000803e3d6000fd5b505050506040513d601f19601f82011682018060405250810190610516919061129b565b6105325760405162461bcd60e51b81526004016102cc906114e0565b600d5460025460405163a9059cbb60e01b81526001600160a01b039283169263a9059cbb92610568929116908590600401611388565b602060405180830381600087803b15801561058257600080fd5b505af1158015610596573d6000803e3d6000fd5b505050506040513d601f19601f820116820180604052508101906105ba919061129b565b6105d65760405162461bcd60e51b81526004016102cc906115ae565b60008085556001850181905560028501805463ffffffff1916905560038501556040517f8f1462bc75233ee60d368eb1925fc2a7f205e6a8ef562c9bdf9c06db8b41aa769061062a908790859085906113c4565b60405180910390a15050505050565b60016020819052600091825260409091208054918101546002820154600390920154909161ffff8082169262010000909204169085565b60075481565b600d546001600160a01b031681565b60065481565b60008061069733610d01565b9092509050806106b95760405162461bcd60e51b81526004016102cc906116bf565b33600090815260016020526040902060028101546106e59061ffff620100009091048116908516611057565b8160020160026101000a81548161ffff021916908361ffff160217905550610711816003015483611057565b600382015561071f82611085565b600d5460405163a9059cbb60e01b81526001600160a01b039091169063a9059cbb906107519033908690600401611388565b602060405180830381600087803b15801561076b57600080fd5b505af115801561077f573d6000803e3d6000fd5b505050506040513d601f19601f820116820180604052508101906107a3919061129b565b507fc6cbb4aa8681b18644bf64921eea8f2b9f44cbd58d64fc07a110bfccc203829633836040516107d5929190611388565b60405180910390a1505050565b60006003541180156108005750600354421015806108005750600654155b61081c5760405162461bcd60e51b81526004016102cc90611485565b336000908152602081905260409020600181015461084c5760405162461bcd60e51b81526004016102cc90611697565b600281015460ff16156108715760405162461bcd60e51b81526004016102cc90611758565b60028101805460ff19166001908117909155600c5482549183015460405163a9059cbb60e01b81526001600160a01b039283169363a9059cbb936108ba93911691600401611388565b602060405180830381600087803b1580156108d457600080fd5b505af11580156108e8573d6000803e3d6000fd5b505050506040513d601f19601f8201168201806040525081019061090c919061129b565b5050565b60085481565b60055481565b6002546001600160a01b031633146109465760405162461bcd60e51b81526004016102cc9061158a565b60006003541180156109645750600354421015806109645750600654155b6109805760405162461bcd60e51b81526004016102cc90611485565b600d546040516370a0823160e01b81526000916001600160a01b0316906370a08231906109b1903090600401611350565b60206040518083038186803b1580156109c957600080fd5b505afa1580156109dd573d6000803e3d6000fd5b505050506040513d601f19601f82011682018060405250810190610a0191906112ed565b60095490915061090c906001600160a01b0316428385610e05565b600b5481565b6002546001600160a01b03163314610a4c5760405162461bcd60e51b81526004016102cc9061158a565b60035415610a6c5760405162461bcd60e51b81526004016102cc90611721565b600454610a799042611820565b600355565b6000602081905290815260409020805460018201546002909201546001600160a01b03909116919060ff1683565b6000600354118015610abf575060035442105b8015610acd57506000600654115b610ae95760405162461bcd60e51b81526004016102cc906115e5565b6007548110158015610afd57506008548111155b610b195760405162461bcd60e51b81526004016102cc90611648565b6000610b30600554836110cb90919063ffffffff16565b9050600654811115610b545760405162461bcd60e51b81526004016102cc90611611565b600d546040516323b872dd60e01b81526001600160a01b03909116906323b872dd90610b8890339030908790600401611364565b602060405180830381600087803b158015610ba257600080fd5b505af1158015610bb6573d6000803e3d6000fd5b505050506040513d601f19601f82011682018060405250810190610bda919061129b565b50600c546040516340c10f1960e01b81526001600160a01b03909116906340c10f1990610c0d9030908590600401611388565b600060405180830381600087803b158015610c2757600080fd5b505af1158015610c3b573d6000803e3d6000fd5b5050336000908152602081905260409020600181015490925015159050610cc25760408051606081018252338082526020808301868152600084860181815293815291829052939020915182546001600160a01b0319166001600160a01b039091161782559151600182015590516002909101805460ff1916911515919091179055610cd8565b818160010154610cd29190611820565b60018201555b505050565b60035481565b6002546001600160a01b031681565b600c546001600160a01b031681565b6001600160a01b03811660009081526001602052604081208054829190421015610d32576000809250925050610e00565b6000610d42428360000154611023565b90506000600b5482610d549190611838565b9050610d65814285600001546110de565b600283015461ffff168110610da257600083600301548460010154610d8a9190611877565b60029094015461ffff169550929350610e0092505050565b6002830154600090610dbf90839062010000900461ffff16611023565b60028501546001860154919250600091610ddd9161ffff1690611838565b90506000610def8361ffff1683611125565b929750919550610e00945050505050565b915091565b6002546001600160a01b03163314610e2f5760405162461bcd60e51b81526004016102cc9061158a565b6001600160a01b038416600090815260016020526040902054849015610e675760405162461bcd60e51b81526004016102cc9061178f565b6000610e7761ffff841685611838565b905060008111610e995760405162461bcd60e51b81526004016102cc90611517565b610ec660405180604001604052806008815260200167030b6b7bab73a1d160c51b81525085600b54611165565b60006040518060a0016040528087600014610ee15787610ee3565b425b81526020018681526020018561ffff168152602001600061ffff16815260200160008152509050610f406040518060400160405280600d81526020016c18dc99585d19590819dc985b9d609a1b8152508260200151600b54611165565b6001600160a01b038716600090815260016020818152604092839020845181558185015192810183905583850151600282018054606088015161ffff908116620100000263ffff0000199190941661ffff199092169190911716919091179055608085015160038201558351808501909452600f84526e1c995d1c9a595d99590819dc985b9d608a1b9184019190915291610fda916111ac565b81516040517f57c6a7bc9955aca2b27dc2d36a450085ff46a0bded448124bb98213a5661b8f291611011918b91908a908a906113e5565b60405180910390a15050505050505050565b6000826110308382611877565b91508111156110515760405162461bcd60e51b81526004016102cc90611456565b92915050565b6000826110648382611820565b91508110156110515760405162461bcd60e51b81526004016102cc9061155c565b6110c88160405160240161109991906117da565b60408051601f198184030181529190526020810180516001600160e01b031663f5b1bba960e01b1790526111ed565b50565b60006110d78284611838565b9392505050565b610cd88383836040516024016110f69392919061180a565b60408051601f198184030181529190526020810180516001600160e01b03166339e0829d60e21b1790526111ed565b60008115806111495750828261113b8183611858565b92506111479083611838565b145b6110515760405162461bcd60e51b81526004016102cc906114b2565b610cd883838360405160240161117d93929190611431565b60408051601f198184030181529190526020810180516001600160e01b031663969cdd0360e01b1790526111ed565b61090c82826040516024016111c292919061140f565b60408051601f198184030181529190526020810180516001600160e01b03166309710a9d60e41b1790525b80516a636f6e736f6c652e6c6f67602083016000808483855afa5050505050565b80356001600160a01b038116811461122557600080fd5b919050565b803561ffff8116811461122557600080fd5b60006020828403121561124d578081fd5b6110d78261120e565b6000806000806080858703121561126b578283fd5b6112748561120e565b935060208501359250604085013591506112906060860161122a565b905092959194509250565b6000602082840312156112ac578081fd5b815180151581146110d7578182fd5b6000602082840312156112cc578081fd5b6110d78261122a565b6000602082840312156112e6578081fd5b5035919050565b6000602082840312156112fe578081fd5b5051919050565b60008151808452815b8181101561132a5760208185018101518683018201520161130e565b8181111561133b5782602083870101525b50601f01601f19169290920160200192915050565b6001600160a01b0391909116815260200190565b6001600160a01b039384168152919092166020820152604081019190915260600190565b6001600160a01b03929092168252602082015260400190565b6001600160a01b0393909316835260208301919091521515604082015260600190565b6001600160a01b039390931683526020830191909152604082015260600190565b6001600160a01b039490941684526020840192909252604083015261ffff16606082015260800190565b6000604082526114226040830185611305565b90508260208301529392505050565b6000606082526114446060830186611305565b60208301949094525060400152919050565b60208082526015908201527464732d6d6174682d7375622d756e646572666c6f7760581b604082015260600190565b6020808252601390820152721250d3c81b5d5cdd081a185d9948195b991959606a1b604082015260600190565b60208082526014908201527364732d6d6174682d6d756c2d6f766572666c6f7760601b604082015260600190565b6020808252601f908201527f746f6b656e2d726563697069656e742d7472616e736665722d6661696c656400604082015260600190565b60208082526025908201527f746f6b656e2d7a65726f2d616d6f756e742d7665737465642d7065722d696e74604082015264195c9d985b60da1b606082015260800190565b60208082526014908201527364732d6d6174682d6164642d6f766572666c6f7760601b604082015260600190565b6020808252600a908201526937b7363c9030b236b4b760b11b604082015260600190565b6020808252601e908201527f746f6b656e2d6d756c74697369672d7472616e736665722d6661696c65640000604082015260600190565b60208082526012908201527149434f206d7573742062652061637469766560701b604082015260600190565b6020808252601f908201527f4e6f7420656e6f75676820746f6b656e73206c65667420666f722073616c6500604082015260600190565b6020808252602f908201527f6861766520746f20627579206265747765656e206d696e50757263686173652060408201526e616e64206d6178507572636861736560881b606082015260800190565b6020808252600e908201526d6f6e6c7920696e766573746f727360901b604082015260600190565b60208082526018908201527f746f6b656e2d7a65726f2d616d6f756e742d7665737465640000000000000000604082015260600190565b6020808252601190820152704e4654204d75737420626520726561647960781b604082015260600190565b60208082526018908201527f49434f2073686f756c64206e6f74206265206163746976650000000000000000604082015260600190565b6020808252601d908201527f746f6b656e73207765726520616c72656164792077697468647261776e000000604082015260600190565b60208082526017908201527f746f6b656e2d757365722d6772616e742d657869737473000000000000000000604082015260600190565b61ffff929092168252602082015260400190565b90815260200190565b948552602085019390935261ffff9182166040850152166060830152608082015260a00190565b9283526020830191909152604082015260600190565b600082198211156118335761183361188e565b500190565b60008261185357634e487b7160e01b81526012600452602481fd5b500490565b60008160001904831182151516156118725761187261188e565b500290565b6000828210156118895761188961188e565b500390565b634e487b7160e01b600052601160045260246000fdfea26469706673582212201e59db782916f3b28a2183715f2cf7a541178aa06c6559496c11199920a00b7064736f6c63430008000033",
  "linkReferences": {},
  "deployedLinkReferences": {}
}