{
  "_format": "hh-sol-artifact-1",
  "contractName": "NFT",
  "sourceName": "contracts/NFT.sol",
  "abi": [
    {
      "inputs": [
        {
          "internalType": "string",
          "name": "name",
          "type": "string"
        },
        {
          "internalType": "string",
          "name": "symbol",
          "type": "string"
        },
        {
          "internalType": "uint256",
          "name": "_maxTotalSupply",
          "type": "uint256"
        },
        {
          "internalType": "address",
          "name": "_admin",
          "type": "address"
        }
      ],
      "stateMutability": "nonpayable",
      "type": "constructor"
    },
    {
      "anonymous": false,
      "inputs": [
        {
          "indexed": true,
          "internalType": "address",
          "name": "owner",
          "type": "address"
        },
        {
          "indexed": true,
          "internalType": "address",
          "name": "approved",
          "type": "address"
        },
        {
          "indexed": true,
          "internalType": "uint256",
          "name": "tokenId",
          "type": "uint256"
        }
      ],
      "name": "Approval",
      "type": "event"
    },
    {
      "anonymous": false,
      "inputs": [
        {
          "indexed": true,
          "internalType": "address",
          "name": "owner",
          "type": "address"
        },
        {
          "indexed": true,
          "internalType": "address",
          "name": "operator",
          "type": "address"
        },
        {
          "indexed": false,
          "internalType": "bool",
          "name": "approved",
          "type": "bool"
        }
      ],
      "name": "ApprovalForAll",
      "type": "event"
    },
    {
      "anonymous": false,
      "inputs": [
        {
          "indexed": true,
          "internalType": "address",
          "name": "from",
          "type": "address"
        },
        {
          "indexed": true,
          "internalType": "address",
          "name": "to",
          "type": "address"
        },
        {
          "indexed": true,
          "internalType": "uint256",
          "name": "tokenId",
          "type": "uint256"
        }
      ],
      "name": "Transfer",
      "type": "event"
    },
    {
      "inputs": [],
      "name": "admin",
      "outputs": [
        {
          "internalType": "address",
          "name": "",
          "type": "address"
        }
      ],
      "stateMutability": "view",
      "type": "function"
    },
    {
      "inputs": [
        {
          "internalType": "address",
          "name": "to",
          "type": "address"
        },
        {
          "internalType": "uint256",
          "name": "tokenId",
          "type": "uint256"
        }
      ],
      "name": "approve",
      "outputs": [],
      "stateMutability": "nonpayable",
      "type": "function"
    },
    {
      "inputs": [
        {
          "internalType": "address",
          "name": "owner",
          "type": "address"
        }
      ],
      "name": "balanceOf",
      "outputs": [
        {
          "internalType": "uint256",
          "name": "",
          "type": "uint256"
        }
      ],
      "stateMutability": "view",
      "type": "function"
    },
    {
      "inputs": [
        {
          "internalType": "uint256",
          "name": "tokenId",
          "type": "uint256"
        }
      ],
      "name": "getApproved",
      "outputs": [
        {
          "internalType": "address",
          "name": "",
          "type": "address"
        }
      ],
      "stateMutability": "view",
      "type": "function"
    },
    {
      "inputs": [
        {
          "internalType": "address",
          "name": "owner",
          "type": "address"
        },
        {
          "internalType": "address",
          "name": "operator",
          "type": "address"
        }
      ],
      "name": "isApprovedForAll",
      "outputs": [
        {
          "internalType": "bool",
          "name": "",
          "type": "bool"
        }
      ],
      "stateMutability": "view",
      "type": "function"
    },
    {
      "inputs": [],
      "name": "maxTotalSupply",
      "outputs": [
        {
          "internalType": "uint256",
          "name": "",
          "type": "uint256"
        }
      ],
      "stateMutability": "view",
      "type": "function"
    },
    {
      "inputs": [
        {
          "internalType": "address",
          "name": "to",
          "type": "address"
        }
      ],
      "name": "mintNFT",
      "outputs": [
        {
          "internalType": "uint256",
          "name": "",
          "type": "uint256"
        }
      ],
      "stateMutability": "nonpayable",
      "type": "function"
    },
    {
      "inputs": [],
      "name": "name",
      "outputs": [
        {
          "internalType": "string",
          "name": "",
          "type": "string"
        }
      ],
      "stateMutability": "view",
      "type": "function"
    },
    {
      "inputs": [
        {
          "internalType": "uint256",
          "name": "tokenId",
          "type": "uint256"
        }
      ],
      "name": "ownerOf",
      "outputs": [
        {
          "internalType": "address",
          "name": "",
          "type": "address"
        }
      ],
      "stateMutability": "view",
      "type": "function"
    },
    {
      "inputs": [
        {
          "internalType": "address",
          "name": "from",
          "type": "address"
        },
        {
          "internalType": "address",
          "name": "to",
          "type": "address"
        },
        {
          "internalType": "uint256",
          "name": "tokenId",
          "type": "uint256"
        }
      ],
      "name": "safeTransferFrom",
      "outputs": [],
      "stateMutability": "nonpayable",
      "type": "function"
    },
    {
      "inputs": [
        {
          "internalType": "address",
          "name": "from",
          "type": "address"
        },
        {
          "internalType": "address",
          "name": "to",
          "type": "address"
        },
        {
          "internalType": "uint256",
          "name": "tokenId",
          "type": "uint256"
        },
        {
          "internalType": "bytes",
          "name": "_data",
          "type": "bytes"
        }
      ],
      "name": "safeTransferFrom",
      "outputs": [],
      "stateMutability": "nonpayable",
      "type": "function"
    },
    {
      "inputs": [
        {
          "internalType": "address",
          "name": "operator",
          "type": "address"
        },
        {
          "internalType": "bool",
          "name": "approved",
          "type": "bool"
        }
      ],
      "name": "setApprovalForAll",
      "outputs": [],
      "stateMutability": "nonpayable",
      "type": "function"
    },
    {
      "inputs": [
        {
          "internalType": "bytes4",
          "name": "interfaceId",
          "type": "bytes4"
        }
      ],
      "name": "supportsInterface",
      "outputs": [
        {
          "internalType": "bool",
          "name": "",
          "type": "bool"
        }
      ],
      "stateMutability": "view",
      "type": "function"
    },
    {
      "inputs": [],
      "name": "symbol",
      "outputs": [
        {
          "internalType": "string",
          "name": "",
          "type": "string"
        }
      ],
      "stateMutability": "view",
      "type": "function"
    },
    {
      "inputs": [
        {
          "internalType": "uint256",
          "name": "index",
          "type": "uint256"
        }
      ],
      "name": "tokenByIndex",
      "outputs": [
        {
          "internalType": "uint256",
          "name": "",
          "type": "uint256"
        }
      ],
      "stateMutability": "view",
      "type": "function"
    },
    {
      "inputs": [
        {
          "internalType": "address",
          "name": "owner",
          "type": "address"
        },
        {
          "internalType": "uint256",
          "name": "index",
          "type": "uint256"
        }
      ],
      "name": "tokenOfOwnerByIndex",
      "outputs": [
        {
          "internalType": "uint256",
          "name": "",
          "type": "uint256"
        }
      ],
      "stateMutability": "view",
      "type": "function"
    },
    {
      "inputs": [
        {
          "internalType": "uint256",
          "name": "tokenId",
          "type": "uint256"
        }
      ],
      "name": "tokenURI",
      "outputs": [
        {
          "internalType": "string",
          "name": "",
          "type": "string"
        }
      ],
      "stateMutability": "view",
      "type": "function"
    },
    {
      "inputs": [],
      "name": "totalSupply",
      "outputs": [
        {
          "internalType": "uint256",
          "name": "",
          "type": "uint256"
        }
      ],
      "stateMutability": "view",
      "type": "function"
    },
    {
      "inputs": [
        {
          "internalType": "address",
          "name": "from",
          "type": "address"
        },
        {
          "internalType": "address",
          "name": "to",
          "type": "address"
        },
        {
          "internalType": "uint256",
          "name": "tokenId",
          "type": "uint256"
        }
      ],
      "name": "transferFrom",
      "outputs": [],
      "stateMutability": "nonpayable",
      "type": "function"
    }
  ],
  "bytecode": "0x60806040523480156200001157600080fd5b5060405162001e6138038062001e618339810160408190526200003491620001e4565b8351849084906200004d90600090602085019062000093565b5080516200006390600190602084019062000093565b5050600c80546001600160a01b0319166001600160a01b03939093169290921790915550600d5550620002c89050565b828054620000a19062000275565b90600052602060002090601f016020900481019282620000c5576000855562000110565b82601f10620000e057805160ff191683800117855562000110565b8280016001018555821562000110579182015b8281111562000110578251825591602001919060010190620000f3565b506200011e92915062000122565b5090565b5b808211156200011e576000815560010162000123565b600082601f8301126200014a578081fd5b81516001600160401b0380821115620001675762000167620002b2565b6040516020601f8401601f19168201810183811183821017156200018f576200018f620002b2565b6040528382528584018101871015620001a6578485fd5b8492505b83831015620001c95785830181015182840182015291820191620001aa565b83831115620001da57848185840101525b5095945050505050565b60008060008060808587031215620001fa578384fd5b84516001600160401b038082111562000211578586fd5b6200021f8883890162000139565b9550602087015191508082111562000235578485fd5b50620002448782880162000139565b60408701516060880151919550935090506001600160a01b03811681146200026a578182fd5b939692955090935050565b6002810460018216806200028a57607f821691505b60208210811415620002ac57634e487b7160e01b600052602260045260246000fd5b50919050565b634e487b7160e01b600052604160045260246000fd5b611b8980620002d86000396000f3fe608060405234801561001057600080fd5b50600436106101215760003560e01c80634f6ccce7116100ad578063a22cb46511610071578063a22cb46514610243578063b88d4fde14610256578063c87b56dd14610269578063e985e9c51461027c578063f851a4401461028f57610121565b80634f6ccce7146101ef57806354ba0f27146102025780636352211e1461021557806370a082311461022857806395d89b411461023b57610121565b806318160ddd116100f457806318160ddd1461019957806323b872dd146101ae5780632ab4d052146101c15780632f745c59146101c957806342842e0e146101dc57610121565b806301ffc9a71461012657806306fdde031461014f578063081812fc14610164578063095ea7b314610184575b600080fd5b6101396101343660046113de565b610297565b60405161014691906114da565b60405180910390f35b6101576102aa565b60405161014691906114e5565b610177610172366004611416565b61033c565b6040516101469190611489565b6101976101923660046113b5565b610388565b005b6101a1610420565b60405161014691906119f4565b6101976101bc366004611274565b610426565b6101a161045e565b6101a16101d73660046113b5565b610464565b6101976101ea366004611274565b6104b6565b6101a16101fd366004611416565b6104d1565b6101a1610210366004611228565b61052c565b610177610223366004611416565b61057b565b6101a1610236366004611228565b6105b0565b6101576105f4565b61019761025136600461137b565b610603565b6101976102643660046112af565b6106d1565b610157610277366004611416565b610710565b61013961028a366004611242565b61071b565b610177610749565b60006102a282610758565b90505b919050565b6060600080546102b990611a6c565b80601f01602080910402602001604051908101604052809291908181526020018280546102e590611a6c565b80156103325780601f1061030757610100808354040283529160200191610332565b820191906000526020600020905b81548152906001019060200180831161031557829003601f168201915b5050505050905090565b60006103478261077d565b61036c5760405162461bcd60e51b815260040161036390611832565b60405180910390fd5b506000908152600460205260409020546001600160a01b031690565b60006103938261057b565b9050806001600160a01b0316836001600160a01b031614156103c75760405162461bcd60e51b815260040161036390611916565b806001600160a01b03166103d961079a565b6001600160a01b031614806103f557506103f58161028a61079a565b6104115760405162461bcd60e51b815260040161036390611693565b61041b838361079e565b505050565b60095490565b61043761043161079a565b8261080c565b6104535760405162461bcd60e51b815260040161036390611957565b61041b838383610891565b600d5481565b600061046f836105b0565b821061048d5760405162461bcd60e51b8152600401610363906114f8565b506001600160a01b03919091166000908152600760209081526040808320938352929052205490565b61041b838383604051806020016040528060008152506106d1565b60006104db610420565b82106104f95760405162461bcd60e51b8152600401610363906119a8565b6009828154811061051a57634e487b7160e01b600052603260045260246000fd5b90600052602060002001549050919050565b600c546000906001600160a01b031633146105595760405162461bcd60e51b8152600401610363906117b8565b610563600b6109be565b600061056f600b6109c7565b90506102a283826109cb565b6000818152600260205260408120546001600160a01b0316806102a25760405162461bcd60e51b81526004016103639061173a565b60006001600160a01b0382166105d85760405162461bcd60e51b8152600401610363906116f0565b506001600160a01b031660009081526003602052604090205490565b6060600180546102b990611a6c565b61060b61079a565b6001600160a01b0316826001600160a01b0316141561063c5760405162461bcd60e51b815260040161036390611610565b806005600061064961079a565b6001600160a01b03908116825260208083019390935260409182016000908120918716808252919093529120805460ff19169215159290921790915561068d61079a565b6001600160a01b03167f17307eab39ab6107e8899845ad3d59bd9653f200f220920489ca2b5937696c31836040516106c591906114da565b60405180910390a35050565b6106e26106dc61079a565b8361080c565b6106fe5760405162461bcd60e51b815260040161036390611957565b61070a848484846109e9565b50505050565b60606102a282610a1c565b6001600160a01b03918216600090815260056020908152604080832093909416825291909152205460ff1690565b600c546001600160a01b031681565b60006001600160e01b0319821663780e9d6360e01b14806102a257506102a282610b35565b6000908152600260205260409020546001600160a01b0316151590565b3390565b600081815260046020526040902080546001600160a01b0319166001600160a01b03841690811790915581906107d38261057b565b6001600160a01b03167f8c5be1e5ebec7d5bd14f71427d1e84f3dd0314c0f7b2291e5b200ac8c7c3b92560405160405180910390a45050565b60006108178261077d565b6108335760405162461bcd60e51b815260040161036390611647565b600061083e8361057b565b9050806001600160a01b0316846001600160a01b031614806108795750836001600160a01b031661086e8461033c565b6001600160a01b0316145b806108895750610889818561071b565b949350505050565b826001600160a01b03166108a48261057b565b6001600160a01b0316146108ca5760405162461bcd60e51b81526004016103639061187e565b6001600160a01b0382166108f05760405162461bcd60e51b8152600401610363906115cc565b6108fb838383610b75565b61090660008261079e565b6001600160a01b038316600090815260036020526040812080546001929061092f908490611a29565b90915550506001600160a01b038216600090815260036020526040812080546001929061095d9084906119fd565b909155505060008181526002602052604080822080546001600160a01b0319166001600160a01b0386811691821790925591518493918716917fddf252ad1be2c89b69c2b068fc378daa952ba7f163c4a11628f55a4df523b3ef91a4505050565b80546001019055565b5490565b6109e5828260405180602001604052806000815250610b80565b5050565b6109f4848484610891565b610a0084848484610bb3565b61070a5760405162461bcd60e51b815260040161036390611543565b6060610a278261077d565b610a435760405162461bcd60e51b8152600401610363906117e1565b60008281526006602052604081208054610a5c90611a6c565b80601f0160208091040260200160405190810160405280929190818152602001828054610a8890611a6c565b8015610ad55780601f10610aaa57610100808354040283529160200191610ad5565b820191906000526020600020905b815481529060010190602001808311610ab857829003601f168201915b505050505090506000610ae6610cce565b9050805160001415610afa575090506102a5565b815115610b2c578082604051602001610b1492919061145a565b604051602081830303815290604052925050506102a5565b61088984610cee565b60006001600160e01b031982166380ac58cd60e01b1480610b6657506001600160e01b03198216635b5e139f60e01b145b806102a257506102a282610d71565b61041b838383610d8a565b610b8a8383610e13565b610b976000848484610bb3565b61041b5760405162461bcd60e51b815260040161036390611543565b6000610bc7846001600160a01b0316610ef2565b15610cc357836001600160a01b031663150b7a02610be361079a565b8786866040518563ffffffff1660e01b8152600401610c05949392919061149d565b602060405180830381600087803b158015610c1f57600080fd5b505af1925050508015610c4f575060408051601f3d908101601f19168201909252610c4c918101906113fa565b60015b610ca9573d808015610c7d576040519150601f19603f3d011682016040523d82523d6000602084013e610c82565b606091505b508051610ca15760405162461bcd60e51b815260040161036390611543565b805181602001fd5b6001600160e01b031916630a85bd0160e11b149050610889565b506001949350505050565b6060604051806060016040528060228152602001611b3260229139905090565b6060610cf98261077d565b610d155760405162461bcd60e51b8152600401610363906118c7565b6000610d1f610cce565b90506000815111610d3f5760405180602001604052806000815250610d6a565b80610d4984610ef8565b604051602001610d5a92919061145a565b6040516020818303038152906040525b9392505050565b6001600160e01b031981166301ffc9a760e01b14919050565b610d9583838361041b565b6001600160a01b038316610db157610dac81611013565b610dd4565b816001600160a01b0316836001600160a01b031614610dd457610dd48382611057565b6001600160a01b038216610df057610deb816110f4565b61041b565b826001600160a01b0316826001600160a01b03161461041b5761041b82826111cd565b6001600160a01b038216610e395760405162461bcd60e51b815260040161036390611783565b610e428161077d565b15610e5f5760405162461bcd60e51b815260040161036390611595565b610e6b60008383610b75565b6001600160a01b0382166000908152600360205260408120805460019290610e949084906119fd565b909155505060008181526002602052604080822080546001600160a01b0319166001600160a01b03861690811790915590518392907fddf252ad1be2c89b69c2b068fc378daa952ba7f163c4a11628f55a4df523b3ef908290a45050565b3b151590565b606081610f1d57506040805180820190915260018152600360fc1b60208201526102a5565b8160005b8115610f475780610f3181611aa7565b9150610f409050600a83611a15565b9150610f21565b60008167ffffffffffffffff811115610f7057634e487b7160e01b600052604160045260246000fd5b6040519080825280601f01601f191660200182016040528015610f9a576020820181803683370190505b5090505b841561088957610faf600183611a29565b9150610fbc600a86611ac2565b610fc79060306119fd565b60f81b818381518110610fea57634e487b7160e01b600052603260045260246000fd5b60200101906001600160f81b031916908160001a90535061100c600a86611a15565b9450610f9e565b600980546000838152600a60205260408120829055600182018355919091527f6e1540171b6c0c960b71a7020d9f60077f6af931a8bbf590da0223dacf75c7af0155565b60006001611064846105b0565b61106e9190611a29565b6000838152600860205260409020549091508082146110c1576001600160a01b03841660009081526007602090815260408083208584528252808320548484528184208190558352600890915290208190555b5060009182526008602090815260408084208490556001600160a01b039094168352600781528383209183525290812055565b60095460009061110690600190611a29565b6000838152600a60205260408120546009805493945090928490811061113c57634e487b7160e01b600052603260045260246000fd5b90600052602060002001549050806009838154811061116b57634e487b7160e01b600052603260045260246000fd5b6000918252602080832090910192909255828152600a909152604080822084905585825281205560098054806111b157634e487b7160e01b600052603160045260246000fd5b6001900381819060005260206000200160009055905550505050565b60006111d8836105b0565b6001600160a01b039093166000908152600760209081526040808320868452825280832085905593825260089052919091209190915550565b80356001600160a01b03811681146102a557600080fd5b600060208284031215611239578081fd5b610d6a82611211565b60008060408385031215611254578081fd5b61125d83611211565b915061126b60208401611211565b90509250929050565b600080600060608486031215611288578081fd5b61129184611211565b925061129f60208501611211565b9150604084013590509250925092565b600080600080608085870312156112c4578081fd5b6112cd85611211565b935060206112dc818701611211565b935060408601359250606086013567ffffffffffffffff808211156112ff578384fd5b818801915088601f830112611312578384fd5b81358181111561132457611324611b02565b604051601f8201601f191681018501838111828210171561134757611347611b02565b60405281815283820185018b101561135d578586fd5b81858501868301379081019093019390935250939692955090935050565b6000806040838503121561138d578182fd5b61139683611211565b9150602083013580151581146113aa578182fd5b809150509250929050565b600080604083850312156113c7578182fd5b6113d083611211565b946020939093013593505050565b6000602082840312156113ef578081fd5b8135610d6a81611b18565b60006020828403121561140b578081fd5b8151610d6a81611b18565b600060208284031215611427578081fd5b5035919050565b60008151808452611446816020860160208601611a40565b601f01601f19169290920160200192915050565b6000835161146c818460208801611a40565b835190830190611480818360208801611a40565b01949350505050565b6001600160a01b0391909116815260200190565b6001600160a01b03858116825284166020820152604081018390526080606082018190526000906114d09083018461142e565b9695505050505050565b901515815260200190565b600060208252610d6a602083018461142e565b6020808252602b908201527f455243373231456e756d657261626c653a206f776e657220696e646578206f7560408201526a74206f6620626f756e647360a81b606082015260800190565b60208082526032908201527f4552433732313a207472616e7366657220746f206e6f6e20455243373231526560408201527131b2b4bb32b91034b6b83632b6b2b73a32b960711b606082015260800190565b6020808252601c908201527f4552433732313a20746f6b656e20616c7265616479206d696e74656400000000604082015260600190565b60208082526024908201527f4552433732313a207472616e7366657220746f20746865207a65726f206164646040820152637265737360e01b606082015260800190565b60208082526019908201527f4552433732313a20617070726f766520746f2063616c6c657200000000000000604082015260600190565b6020808252602c908201527f4552433732313a206f70657261746f7220717565727920666f72206e6f6e657860408201526b34b9ba32b73a103a37b5b2b760a11b606082015260800190565b60208082526038908201527f4552433732313a20617070726f76652063616c6c6572206973206e6f74206f7760408201527f6e6572206e6f7220617070726f76656420666f7220616c6c0000000000000000606082015260800190565b6020808252602a908201527f4552433732313a2062616c616e636520717565727920666f7220746865207a65604082015269726f206164647265737360b01b606082015260800190565b60208082526029908201527f4552433732313a206f776e657220717565727920666f72206e6f6e657869737460408201526832b73a103a37b5b2b760b91b606082015260800190565b6020808252818101527f4552433732313a206d696e7420746f20746865207a65726f2061646472657373604082015260600190565b6020808252600f908201526e37b7363c903130b5b09030b236b4b760891b604082015260600190565b60208082526031908201527f45524337323155524953746f726167653a2055524920717565727920666f72206040820152703737b732bc34b9ba32b73a103a37b5b2b760791b606082015260800190565b6020808252602c908201527f4552433732313a20617070726f76656420717565727920666f72206e6f6e657860408201526b34b9ba32b73a103a37b5b2b760a11b606082015260800190565b60208082526029908201527f4552433732313a207472616e73666572206f6620746f6b656e2074686174206960408201526839903737ba1037bbb760b91b606082015260800190565b6020808252602f908201527f4552433732314d657461646174613a2055524920717565727920666f72206e6f60408201526e3732bc34b9ba32b73a103a37b5b2b760891b606082015260800190565b60208082526021908201527f4552433732313a20617070726f76616c20746f2063757272656e74206f776e656040820152603960f91b606082015260800190565b60208082526031908201527f4552433732313a207472616e736665722063616c6c6572206973206e6f74206f6040820152701ddb995c881b9bdc88185c1c1c9bdd9959607a1b606082015260800190565b6020808252602c908201527f455243373231456e756d657261626c653a20676c6f62616c20696e646578206f60408201526b7574206f6620626f756e647360a01b606082015260800190565b90815260200190565b60008219821115611a1057611a10611ad6565b500190565b600082611a2457611a24611aec565b500490565b600082821015611a3b57611a3b611ad6565b500390565b60005b83811015611a5b578181015183820152602001611a43565b8381111561070a5750506000910152565b600281046001821680611a8057607f821691505b60208210811415611aa157634e487b7160e01b600052602260045260246000fd5b50919050565b6000600019821415611abb57611abb611ad6565b5060010190565b600082611ad157611ad1611aec565b500690565b634e487b7160e01b600052601160045260246000fd5b634e487b7160e01b600052601260045260246000fd5b634e487b7160e01b600052604160045260246000fd5b6001600160e01b031981168114611b2e57600080fd5b5056fe68747470733a2f2f676174657761792e70696e6174612e636c6f75642f697066732fa26469706673582212204f1122afc45bc5a08c2423567faed5b6e73437a6c79b571cd492898746b1757d64736f6c63430008000033",
  "linkReferences": {},
  "deployedLinkReferences": {}
}