{
  "_format": "hh-sol-artifact-1",
  "contractName": "NFT",
  "sourceName": "contracts/NFT.sol",
  "abi": [
    {
      "inputs": [
        {
          "internalType": "string",
          "name": "name",
          "type": "string"
        },
        {
          "internalType": "string",
          "name": "symbol",
          "type": "string"
        },
        {
          "internalType": "uint256",
          "name": "_maxTotalSupply",
          "type": "uint256"
        },
        {
          "internalType": "string",
          "name": "_folderName",
          "type": "string"
        },
        {
          "internalType": "address",
          "name": "_admin",
          "type": "address"
        }
      ],
      "stateMutability": "nonpayable",
      "type": "constructor"
    },
    {
      "anonymous": false,
      "inputs": [
        {
          "indexed": true,
          "internalType": "address",
          "name": "owner",
          "type": "address"
        },
        {
          "indexed": true,
          "internalType": "address",
          "name": "approved",
          "type": "address"
        },
        {
          "indexed": true,
          "internalType": "uint256",
          "name": "tokenId",
          "type": "uint256"
        }
      ],
      "name": "Approval",
      "type": "event"
    },
    {
      "anonymous": false,
      "inputs": [
        {
          "indexed": true,
          "internalType": "address",
          "name": "owner",
          "type": "address"
        },
        {
          "indexed": true,
          "internalType": "address",
          "name": "operator",
          "type": "address"
        },
        {
          "indexed": false,
          "internalType": "bool",
          "name": "approved",
          "type": "bool"
        }
      ],
      "name": "ApprovalForAll",
      "type": "event"
    },
    {
      "anonymous": false,
      "inputs": [
        {
          "indexed": true,
          "internalType": "address",
          "name": "from",
          "type": "address"
        },
        {
          "indexed": true,
          "internalType": "address",
          "name": "to",
          "type": "address"
        },
        {
          "indexed": true,
          "internalType": "uint256",
          "name": "tokenId",
          "type": "uint256"
        }
      ],
      "name": "Transfer",
      "type": "event"
    },
    {
      "inputs": [],
      "name": "admin",
      "outputs": [
        {
          "internalType": "address",
          "name": "",
          "type": "address"
        }
      ],
      "stateMutability": "view",
      "type": "function"
    },
    {
      "inputs": [
        {
          "internalType": "address",
          "name": "to",
          "type": "address"
        },
        {
          "internalType": "uint256",
          "name": "tokenId",
          "type": "uint256"
        }
      ],
      "name": "approve",
      "outputs": [],
      "stateMutability": "nonpayable",
      "type": "function"
    },
    {
      "inputs": [
        {
          "internalType": "address",
          "name": "owner",
          "type": "address"
        }
      ],
      "name": "balanceOf",
      "outputs": [
        {
          "internalType": "uint256",
          "name": "",
          "type": "uint256"
        }
      ],
      "stateMutability": "view",
      "type": "function"
    },
    {
      "inputs": [],
      "name": "folderName",
      "outputs": [
        {
          "internalType": "string",
          "name": "",
          "type": "string"
        }
      ],
      "stateMutability": "view",
      "type": "function"
    },
    {
      "inputs": [
        {
          "internalType": "uint256",
          "name": "tokenId",
          "type": "uint256"
        }
      ],
      "name": "getApproved",
      "outputs": [
        {
          "internalType": "address",
          "name": "",
          "type": "address"
        }
      ],
      "stateMutability": "view",
      "type": "function"
    },
    {
      "inputs": [
        {
          "internalType": "address",
          "name": "owner",
          "type": "address"
        },
        {
          "internalType": "address",
          "name": "operator",
          "type": "address"
        }
      ],
      "name": "isApprovedForAll",
      "outputs": [
        {
          "internalType": "bool",
          "name": "",
          "type": "bool"
        }
      ],
      "stateMutability": "view",
      "type": "function"
    },
    {
      "inputs": [],
      "name": "maxTotalSupply",
      "outputs": [
        {
          "internalType": "uint256",
          "name": "",
          "type": "uint256"
        }
      ],
      "stateMutability": "view",
      "type": "function"
    },
    {
      "inputs": [
        {
          "internalType": "address",
          "name": "to",
          "type": "address"
        }
      ],
      "name": "mintNFT",
      "outputs": [
        {
          "internalType": "uint256",
          "name": "",
          "type": "uint256"
        }
      ],
      "stateMutability": "nonpayable",
      "type": "function"
    },
    {
      "inputs": [],
      "name": "name",
      "outputs": [
        {
          "internalType": "string",
          "name": "",
          "type": "string"
        }
      ],
      "stateMutability": "view",
      "type": "function"
    },
    {
      "inputs": [
        {
          "internalType": "uint256",
          "name": "tokenId",
          "type": "uint256"
        }
      ],
      "name": "ownerOf",
      "outputs": [
        {
          "internalType": "address",
          "name": "",
          "type": "address"
        }
      ],
      "stateMutability": "view",
      "type": "function"
    },
    {
      "inputs": [
        {
          "internalType": "address",
          "name": "from",
          "type": "address"
        },
        {
          "internalType": "address",
          "name": "to",
          "type": "address"
        },
        {
          "internalType": "uint256",
          "name": "tokenId",
          "type": "uint256"
        }
      ],
      "name": "safeTransferFrom",
      "outputs": [],
      "stateMutability": "nonpayable",
      "type": "function"
    },
    {
      "inputs": [
        {
          "internalType": "address",
          "name": "from",
          "type": "address"
        },
        {
          "internalType": "address",
          "name": "to",
          "type": "address"
        },
        {
          "internalType": "uint256",
          "name": "tokenId",
          "type": "uint256"
        },
        {
          "internalType": "bytes",
          "name": "_data",
          "type": "bytes"
        }
      ],
      "name": "safeTransferFrom",
      "outputs": [],
      "stateMutability": "nonpayable",
      "type": "function"
    },
    {
      "inputs": [
        {
          "internalType": "address",
          "name": "operator",
          "type": "address"
        },
        {
          "internalType": "bool",
          "name": "approved",
          "type": "bool"
        }
      ],
      "name": "setApprovalForAll",
      "outputs": [],
      "stateMutability": "nonpayable",
      "type": "function"
    },
    {
      "inputs": [
        {
          "internalType": "bytes4",
          "name": "interfaceId",
          "type": "bytes4"
        }
      ],
      "name": "supportsInterface",
      "outputs": [
        {
          "internalType": "bool",
          "name": "",
          "type": "bool"
        }
      ],
      "stateMutability": "view",
      "type": "function"
    },
    {
      "inputs": [],
      "name": "symbol",
      "outputs": [
        {
          "internalType": "string",
          "name": "",
          "type": "string"
        }
      ],
      "stateMutability": "view",
      "type": "function"
    },
    {
      "inputs": [
        {
          "internalType": "uint256",
          "name": "index",
          "type": "uint256"
        }
      ],
      "name": "tokenByIndex",
      "outputs": [
        {
          "internalType": "uint256",
          "name": "",
          "type": "uint256"
        }
      ],
      "stateMutability": "view",
      "type": "function"
    },
    {
      "inputs": [
        {
          "internalType": "address",
          "name": "owner",
          "type": "address"
        },
        {
          "internalType": "uint256",
          "name": "index",
          "type": "uint256"
        }
      ],
      "name": "tokenOfOwnerByIndex",
      "outputs": [
        {
          "internalType": "uint256",
          "name": "",
          "type": "uint256"
        }
      ],
      "stateMutability": "view",
      "type": "function"
    },
    {
      "inputs": [
        {
          "internalType": "uint256",
          "name": "tokenId",
          "type": "uint256"
        }
      ],
      "name": "tokenURI",
      "outputs": [
        {
          "internalType": "string",
          "name": "",
          "type": "string"
        }
      ],
      "stateMutability": "view",
      "type": "function"
    },
    {
      "inputs": [],
      "name": "totalSupply",
      "outputs": [
        {
          "internalType": "uint256",
          "name": "",
          "type": "uint256"
        }
      ],
      "stateMutability": "view",
      "type": "function"
    },
    {
      "inputs": [
        {
          "internalType": "address",
          "name": "from",
          "type": "address"
        },
        {
          "internalType": "address",
          "name": "to",
          "type": "address"
        },
        {
          "internalType": "uint256",
          "name": "tokenId",
          "type": "uint256"
        }
      ],
      "name": "transferFrom",
      "outputs": [],
      "stateMutability": "nonpayable",
      "type": "function"
    }
  ],
  "bytecode": "0x60806040523480156200001157600080fd5b50604051620020cd380380620020cd8339810160408190526200003491620001f8565b8451859085906200004d906000906020850190620000a7565b50805162000063906001906020840190620000a7565b5050600c80546001600160a01b0319166001600160a01b03841617905550600d83905581516200009b90600e906020850190620000a7565b50505050505062000305565b828054620000b590620002b2565b90600052602060002090601f016020900481019282620000d9576000855562000124565b82601f10620000f457805160ff191683800117855562000124565b8280016001018555821562000124579182015b828111156200012457825182559160200191906001019062000107565b506200013292915062000136565b5090565b5b8082111562000132576000815560010162000137565b600082601f8301126200015e578081fd5b81516001600160401b03808211156200017b576200017b620002ef565b6040516020601f8401601f1916820181018381118382101715620001a357620001a3620002ef565b6040528382528584018101871015620001ba578485fd5b8492505b83831015620001dd5785830181015182840182015291820191620001be565b83831115620001ee57848185840101525b5095945050505050565b600080600080600060a0868803121562000210578081fd5b85516001600160401b038082111562000227578283fd5b6200023589838a016200014d565b965060208801519150808211156200024b578283fd5b6200025989838a016200014d565b955060408801519450606088015191508082111562000276578283fd5b5062000285888289016200014d565b608088015190935090506001600160a01b0381168114620002a4578182fd5b809150509295509295909350565b600281046001821680620002c757607f821691505b60208210811415620002e957634e487b7160e01b600052602260045260246000fd5b50919050565b634e487b7160e01b600052604160045260246000fd5b611db880620003156000396000f3fe608060405234801561001057600080fd5b506004361061012c5760003560e01c806354ba0f27116100ad578063a22cb46511610071578063a22cb46514610256578063b88d4fde14610269578063c87b56dd1461027c578063e985e9c51461028f578063f851a440146102a25761012c565b806354ba0f271461020d5780636352211e1461022057806370a0823114610233578063731ad4121461024657806395d89b411461024e5761012c565b806323b872dd116100f457806323b872dd146101b95780632ab4d052146101cc5780632f745c59146101d457806342842e0e146101e75780634f6ccce7146101fa5761012c565b806301ffc9a71461013157806306fdde031461015a578063081812fc1461016f578063095ea7b31461018f57806318160ddd146101a4575b600080fd5b61014461013f3660046115a9565b6102aa565b60405161015191906116e8565b60405180910390f35b6101626102bd565b60405161015191906116f3565b61018261017d3660046115e1565b61034f565b6040516101519190611697565b6101a261019d366004611580565b61039b565b005b6101ac610433565b6040516101519190611c23565b6101a26101c736600461143f565b610439565b6101ac610471565b6101ac6101e2366004611580565b610477565b6101a26101f536600461143f565b6104c9565b6101ac6102083660046115e1565b6104e4565b6101ac61021b3660046113f3565b61053f565b61018261022e3660046115e1565b6105d9565b6101ac6102413660046113f3565b61060e565b610162610652565b6101626106e0565b6101a2610264366004611546565b6106ef565b6101a261027736600461147a565b6107bd565b61016261028a3660046115e1565b6107fc565b61014461029d36600461140d565b610807565b610182610835565b60006102b582610844565b90505b919050565b6060600080546102cc90611c9b565b80601f01602080910402602001604051908101604052809291908181526020018280546102f890611c9b565b80156103455780601f1061031a57610100808354040283529160200191610345565b820191906000526020600020905b81548152906001019060200180831161032857829003601f168201915b5050505050905090565b600061035a82610869565b61037f5760405162461bcd60e51b815260040161037690611a61565b60405180910390fd5b506000908152600460205260409020546001600160a01b031690565b60006103a6826105d9565b9050806001600160a01b0316836001600160a01b031614156103da5760405162461bcd60e51b815260040161037690611b45565b806001600160a01b03166103ec610886565b6001600160a01b0316148061040857506104088161029d610886565b6104245760405162461bcd60e51b8152600401610376906118eb565b61042e838361088a565b505050565b60095490565b61044a610444610886565b826108f8565b6104665760405162461bcd60e51b815260040161037690611b86565b61042e83838361097d565b600d5481565b60006104828361060e565b82106104a05760405162461bcd60e51b815260040161037690611706565b506001600160a01b03919091166000908152600760209081526040808320938352929052205490565b61042e838383604051806020016040528060008152506107bd565b60006104ee610433565b821061050c5760405162461bcd60e51b815260040161037690611bd7565b6009828154811061052d57634e487b7160e01b600052603260045260246000fd5b90600052602060002001549050919050565b600c546000906001600160a01b0316331461056c5760405162461bcd60e51b81526004016103769061187b565b610576600b610aaa565b6001600d546105859190611c58565b10156105a35760405162461bcd60e51b815260040161037690611855565b6105ad600b610aae565b60006105b9600b610aaa565b90506105c58382610ab7565b60006105d0826107fc565b50909392505050565b6000818152600260205260408120546001600160a01b0316806102b55760405162461bcd60e51b815260040161037690611992565b60006001600160a01b0382166106365760405162461bcd60e51b815260040161037690611948565b506001600160a01b031660009081526003602052604090205490565b600e805461065f90611c9b565b80601f016020809104026020016040519081016040528092919081815260200182805461068b90611c9b565b80156106d85780601f106106ad576101008083540402835291602001916106d8565b820191906000526020600020905b8154815290600101906020018083116106bb57829003601f168201915b505050505081565b6060600180546102cc90611c9b565b6106f7610886565b6001600160a01b0316826001600160a01b031614156107285760405162461bcd60e51b81526004016103769061181e565b8060056000610735610886565b6001600160a01b03908116825260208083019390935260409182016000908120918716808252919093529120805460ff191692151592909217909155610779610886565b6001600160a01b03167f17307eab39ab6107e8899845ad3d59bd9653f200f220920489ca2b5937696c31836040516107b191906116e8565b60405180910390a35050565b6107ce6107c8610886565b836108f8565b6107ea5760405162461bcd60e51b815260040161037690611b86565b6107f684848484610ad5565b50505050565b60606102b582610b08565b6001600160a01b03918216600090815260056020908152604080832093909416825291909152205460ff1690565b600c546001600160a01b031681565b60006001600160e01b0319821663780e9d6360e01b14806102b557506102b582610c21565b6000908152600260205260409020546001600160a01b0316151590565b3390565b600081815260046020526040902080546001600160a01b0319166001600160a01b03841690811790915581906108bf826105d9565b6001600160a01b03167f8c5be1e5ebec7d5bd14f71427d1e84f3dd0314c0f7b2291e5b200ac8c7c3b92560405160405180910390a45050565b600061090382610869565b61091f5760405162461bcd60e51b81526004016103769061189f565b600061092a836105d9565b9050806001600160a01b0316846001600160a01b031614806109655750836001600160a01b031661095a8461034f565b6001600160a01b0316145b8061097557506109758185610807565b949350505050565b826001600160a01b0316610990826105d9565b6001600160a01b0316146109b65760405162461bcd60e51b815260040161037690611aad565b6001600160a01b0382166109dc5760405162461bcd60e51b8152600401610376906117da565b6109e7838383610c61565b6109f260008261088a565b6001600160a01b0383166000908152600360205260408120805460019290610a1b908490611c58565b90915550506001600160a01b0382166000908152600360205260408120805460019290610a49908490611c2c565b909155505060008181526002602052604080822080546001600160a01b0319166001600160a01b0386811691821790925591518493918716917fddf252ad1be2c89b69c2b068fc378daa952ba7f163c4a11628f55a4df523b3ef91a4505050565b5490565b80546001019055565b610ad1828260405180602001604052806000815250610c6c565b5050565b610ae084848461097d565b610aec84848484610c9f565b6107f65760405162461bcd60e51b815260040161037690611751565b6060610b1382610869565b610b2f5760405162461bcd60e51b815260040161037690611a10565b60008281526006602052604081208054610b4890611c9b565b80601f0160208091040260200160405190810160405280929190818152602001828054610b7490611c9b565b8015610bc15780601f10610b9657610100808354040283529160200191610bc1565b820191906000526020600020905b815481529060010190602001808311610ba457829003601f168201915b505050505090506000610bd2610dba565b9050805160001415610be6575090506102b8565b815115610c18578082604051602001610c00929190611625565b604051602081830303815290604052925050506102b8565b61097584610e8a565b60006001600160e01b031982166380ac58cd60e01b1480610c5257506001600160e01b03198216635b5e139f60e01b145b806102b557506102b582610f0d565b61042e838383610f26565b610c768383610faf565b610c836000848484610c9f565b61042e5760405162461bcd60e51b815260040161037690611751565b6000610cb3846001600160a01b031661108e565b15610daf57836001600160a01b031663150b7a02610ccf610886565b8786866040518563ffffffff1660e01b8152600401610cf194939291906116ab565b602060405180830381600087803b158015610d0b57600080fd5b505af1925050508015610d3b575060408051601f3d908101601f19168201909252610d38918101906115c5565b60015b610d95573d808015610d69576040519150601f19603f3d011682016040523d82523d6000602084013e610d6e565b606091505b508051610d8d5760405162461bcd60e51b815260040161037690611751565b805181602001fd5b6001600160e01b031916630a85bd0160e11b149050610975565b506001949350505050565b60606000610e84604051806060016040528060228152602001611d6160229139600e8054610de790611c9b565b80601f0160208091040260200160405190810160405280929190818152602001828054610e1390611c9b565b8015610e605780601f10610e3557610100808354040283529160200191610e60565b820191906000526020600020905b815481529060010190602001808311610e4357829003601f168201915b5050505050604051806040016040528060018152602001602f60f81b815250611094565b91505090565b6060610e9582610869565b610eb15760405162461bcd60e51b815260040161037690611af6565b6000610ebb610dba565b90506000815111610edb5760405180602001604052806000815250610f06565b80610ee5846110c3565b604051602001610ef6929190611625565b6040516020818303038152906040525b9392505050565b6001600160e01b031981166301ffc9a760e01b14919050565b610f3183838361042e565b6001600160a01b038316610f4d57610f48816111de565b610f70565b816001600160a01b0316836001600160a01b031614610f7057610f708382611222565b6001600160a01b038216610f8c57610f87816112bf565b61042e565b826001600160a01b0316826001600160a01b03161461042e5761042e8282611398565b6001600160a01b038216610fd55760405162461bcd60e51b8152600401610376906119db565b610fde81610869565b15610ffb5760405162461bcd60e51b8152600401610376906117a3565b61100760008383610c61565b6001600160a01b0382166000908152600360205260408120805460019290611030908490611c2c565b909155505060008181526002602052604080822080546001600160a01b0319166001600160a01b03861690811790915590518392907fddf252ad1be2c89b69c2b068fc378daa952ba7f163c4a11628f55a4df523b3ef908290a45050565b3b151590565b60608383836040516020016110ab93929190611654565b60405160208183030381529060405290509392505050565b6060816110e857506040805180820190915260018152600360fc1b60208201526102b8565b8160005b811561111257806110fc81611cd6565b915061110b9050600a83611c44565b91506110ec565b60008167ffffffffffffffff81111561113b57634e487b7160e01b600052604160045260246000fd5b6040519080825280601f01601f191660200182016040528015611165576020820181803683370190505b5090505b84156109755761117a600183611c58565b9150611187600a86611cf1565b611192906030611c2c565b60f81b8183815181106111b557634e487b7160e01b600052603260045260246000fd5b60200101906001600160f81b031916908160001a9053506111d7600a86611c44565b9450611169565b600980546000838152600a60205260408120829055600182018355919091527f6e1540171b6c0c960b71a7020d9f60077f6af931a8bbf590da0223dacf75c7af0155565b6000600161122f8461060e565b6112399190611c58565b60008381526008602052604090205490915080821461128c576001600160a01b03841660009081526007602090815260408083208584528252808320548484528184208190558352600890915290208190555b5060009182526008602090815260408084208490556001600160a01b039094168352600781528383209183525290812055565b6009546000906112d190600190611c58565b6000838152600a60205260408120546009805493945090928490811061130757634e487b7160e01b600052603260045260246000fd5b90600052602060002001549050806009838154811061133657634e487b7160e01b600052603260045260246000fd5b6000918252602080832090910192909255828152600a9091526040808220849055858252812055600980548061137c57634e487b7160e01b600052603160045260246000fd5b6001900381819060005260206000200160009055905550505050565b60006113a38361060e565b6001600160a01b039093166000908152600760209081526040808320868452825280832085905593825260089052919091209190915550565b80356001600160a01b03811681146102b857600080fd5b600060208284031215611404578081fd5b610f06826113dc565b6000806040838503121561141f578081fd5b611428836113dc565b9150611436602084016113dc565b90509250929050565b600080600060608486031215611453578081fd5b61145c846113dc565b925061146a602085016113dc565b9150604084013590509250925092565b6000806000806080858703121561148f578081fd5b611498856113dc565b935060206114a78187016113dc565b935060408601359250606086013567ffffffffffffffff808211156114ca578384fd5b818801915088601f8301126114dd578384fd5b8135818111156114ef576114ef611d31565b604051601f8201601f191681018501838111828210171561151257611512611d31565b60405281815283820185018b1015611528578586fd5b81858501868301379081019093019390935250939692955090935050565b60008060408385031215611558578182fd5b611561836113dc565b915060208301358015158114611575578182fd5b809150509250929050565b60008060408385031215611592578182fd5b61159b836113dc565b946020939093013593505050565b6000602082840312156115ba578081fd5b8135610f0681611d47565b6000602082840312156115d6578081fd5b8151610f0681611d47565b6000602082840312156115f2578081fd5b5035919050565b60008151808452611611816020860160208601611c6f565b601f01601f19169290920160200192915050565b60008351611637818460208801611c6f565b83519083019061164b818360208801611c6f565b01949350505050565b60008451611666818460208901611c6f565b84519083019061167a818360208901611c6f565b845191019061168d818360208801611c6f565b0195945050505050565b6001600160a01b0391909116815260200190565b6001600160a01b03858116825284166020820152604081018390526080606082018190526000906116de908301846115f9565b9695505050505050565b901515815260200190565b600060208252610f0660208301846115f9565b6020808252602b908201527f455243373231456e756d657261626c653a206f776e657220696e646578206f7560408201526a74206f6620626f756e647360a81b606082015260800190565b60208082526032908201527f4552433732313a207472616e7366657220746f206e6f6e20455243373231526560408201527131b2b4bb32b91034b6b83632b6b2b73a32b960711b606082015260800190565b6020808252601c908201527f4552433732313a20746f6b656e20616c7265616479206d696e74656400000000604082015260600190565b60208082526024908201527f4552433732313a207472616e7366657220746f20746865207a65726f206164646040820152637265737360e01b606082015260800190565b60208082526019908201527f4552433732313a20617070726f766520746f2063616c6c657200000000000000604082015260600190565b6020808252600c908201526b1bdd995c9cdd5c1c1b1a595960a21b604082015260600190565b6020808252600a908201526937b7363c9030b236b4b760b11b604082015260600190565b6020808252602c908201527f4552433732313a206f70657261746f7220717565727920666f72206e6f6e657860408201526b34b9ba32b73a103a37b5b2b760a11b606082015260800190565b60208082526038908201527f4552433732313a20617070726f76652063616c6c6572206973206e6f74206f7760408201527f6e6572206e6f7220617070726f76656420666f7220616c6c0000000000000000606082015260800190565b6020808252602a908201527f4552433732313a2062616c616e636520717565727920666f7220746865207a65604082015269726f206164647265737360b01b606082015260800190565b60208082526029908201527f4552433732313a206f776e657220717565727920666f72206e6f6e657869737460408201526832b73a103a37b5b2b760b91b606082015260800190565b6020808252818101527f4552433732313a206d696e7420746f20746865207a65726f2061646472657373604082015260600190565b60208082526031908201527f45524337323155524953746f726167653a2055524920717565727920666f72206040820152703737b732bc34b9ba32b73a103a37b5b2b760791b606082015260800190565b6020808252602c908201527f4552433732313a20617070726f76656420717565727920666f72206e6f6e657860408201526b34b9ba32b73a103a37b5b2b760a11b606082015260800190565b60208082526029908201527f4552433732313a207472616e73666572206f6620746f6b656e2074686174206960408201526839903737ba1037bbb760b91b606082015260800190565b6020808252602f908201527f4552433732314d657461646174613a2055524920717565727920666f72206e6f60408201526e3732bc34b9ba32b73a103a37b5b2b760891b606082015260800190565b60208082526021908201527f4552433732313a20617070726f76616c20746f2063757272656e74206f776e656040820152603960f91b606082015260800190565b60208082526031908201527f4552433732313a207472616e736665722063616c6c6572206973206e6f74206f6040820152701ddb995c881b9bdc88185c1c1c9bdd9959607a1b606082015260800190565b6020808252602c908201527f455243373231456e756d657261626c653a20676c6f62616c20696e646578206f60408201526b7574206f6620626f756e647360a01b606082015260800190565b90815260200190565b60008219821115611c3f57611c3f611d05565b500190565b600082611c5357611c53611d1b565b500490565b600082821015611c6a57611c6a611d05565b500390565b60005b83811015611c8a578181015183820152602001611c72565b838111156107f65750506000910152565b600281046001821680611caf57607f821691505b60208210811415611cd057634e487b7160e01b600052602260045260246000fd5b50919050565b6000600019821415611cea57611cea611d05565b5060010190565b600082611d0057611d00611d1b565b500690565b634e487b7160e01b600052601160045260246000fd5b634e487b7160e01b600052601260045260246000fd5b634e487b7160e01b600052604160045260246000fd5b6001600160e01b031981168114611d5d57600080fd5b5056fe68747470733a2f2f676174657761792e70696e6174612e636c6f75642f697066732fa26469706673582212206bb269f098f8175f7bb4a5e9ae495ebbf179c4965f391985710dd5188bbe1af864736f6c63430008000033",
  "linkReferences": {},
  "deployedLinkReferences": {}
}