{
  "_format": "hh-sol-artifact-1",
  "contractName": "Vesting",
  "sourceName": "contracts/Vesting.sol",
  "abi": [
    {
      "inputs": [
        {
          "internalType": "address",
          "name": "_token",
          "type": "address"
        },
        {
          "internalType": "address",
          "name": "_admin",
          "type": "address"
        }
      ],
      "stateMutability": "nonpayable",
      "type": "constructor"
    },
    {
      "anonymous": false,
      "inputs": [
        {
          "indexed": false,
          "internalType": "address",
          "name": "recipient",
          "type": "address"
        },
        {
          "indexed": false,
          "internalType": "uint256",
          "name": "startTime",
          "type": "uint256"
        },
        {
          "indexed": false,
          "internalType": "uint128",
          "name": "amount",
          "type": "uint128"
        },
        {
          "indexed": false,
          "internalType": "uint128",
          "name": "vestingDuration",
          "type": "uint128"
        },
        {
          "indexed": false,
          "internalType": "uint128",
          "name": "vestingCliff",
          "type": "uint128"
        },
        {
          "indexed": false,
          "internalType": "uint128",
          "name": "vestingInterval",
          "type": "uint128"
        }
      ],
      "name": "GrantAdded",
      "type": "event"
    },
    {
      "anonymous": false,
      "inputs": [
        {
          "indexed": false,
          "internalType": "address",
          "name": "recipient",
          "type": "address"
        },
        {
          "indexed": false,
          "internalType": "uint128",
          "name": "amountVested",
          "type": "uint128"
        },
        {
          "indexed": false,
          "internalType": "uint128",
          "name": "amountNotVested",
          "type": "uint128"
        }
      ],
      "name": "GrantRemoved",
      "type": "event"
    },
    {
      "anonymous": false,
      "inputs": [
        {
          "indexed": false,
          "internalType": "address",
          "name": "recipient",
          "type": "address"
        },
        {
          "indexed": false,
          "internalType": "uint128",
          "name": "amountClaimed",
          "type": "uint128"
        }
      ],
      "name": "GrantTokensClaimed",
      "type": "event"
    },
    {
      "inputs": [
        {
          "internalType": "address",
          "name": "_recipient",
          "type": "address"
        },
        {
          "internalType": "uint256",
          "name": "_startTime",
          "type": "uint256"
        },
        {
          "internalType": "uint128",
          "name": "_amount",
          "type": "uint128"
        },
        {
          "internalType": "uint128",
          "name": "_vestingDuration",
          "type": "uint128"
        },
        {
          "internalType": "uint128",
          "name": "_vestingCliff",
          "type": "uint128"
        },
        {
          "internalType": "uint128",
          "name": "_vestingInterval",
          "type": "uint128"
        }
      ],
      "name": "addTokenGrant",
      "outputs": [],
      "stateMutability": "nonpayable",
      "type": "function"
    },
    {
      "inputs": [],
      "name": "admin",
      "outputs": [
        {
          "internalType": "address",
          "name": "",
          "type": "address"
        }
      ],
      "stateMutability": "view",
      "type": "function"
    },
    {
      "inputs": [
        {
          "internalType": "address",
          "name": "_recipient",
          "type": "address"
        }
      ],
      "name": "calculateGrantClaim",
      "outputs": [
        {
          "internalType": "uint128",
          "name": "",
          "type": "uint128"
        },
        {
          "internalType": "uint128",
          "name": "",
          "type": "uint128"
        }
      ],
      "stateMutability": "view",
      "type": "function"
    },
    {
      "inputs": [],
      "name": "claimVestedTokens",
      "outputs": [],
      "stateMutability": "nonpayable",
      "type": "function"
    },
    {
      "inputs": [
        {
          "internalType": "address",
          "name": "_recipient",
          "type": "address"
        }
      ],
      "name": "removeTokenGrant",
      "outputs": [],
      "stateMutability": "nonpayable",
      "type": "function"
    },
    {
      "inputs": [],
      "name": "token",
      "outputs": [
        {
          "internalType": "contract Token",
          "name": "",
          "type": "address"
        }
      ],
      "stateMutability": "view",
      "type": "function"
    },
    {
      "inputs": [
        {
          "internalType": "address",
          "name": "",
          "type": "address"
        }
      ],
      "name": "tokenGrants",
      "outputs": [
        {
          "internalType": "uint256",
          "name": "startTime",
          "type": "uint256"
        },
        {
          "internalType": "uint128",
          "name": "amount",
          "type": "uint128"
        },
        {
          "internalType": "uint128",
          "name": "vestingDuration",
          "type": "uint128"
        },
        {
          "internalType": "uint128",
          "name": "vestingCliff",
          "type": "uint128"
        },
        {
          "internalType": "uint128",
          "name": "intervalsClaimed",
          "type": "uint128"
        },
        {
          "internalType": "uint128",
          "name": "totalClaimed",
          "type": "uint128"
        },
        {
          "internalType": "uint128",
          "name": "vestingInterval",
          "type": "uint128"
        }
      ],
      "stateMutability": "view",
      "type": "function"
    }
  ],
  "bytecode": "0x60806040523480156200001157600080fd5b506040516200124f3803806200124f8339810160408190526200003491620000e2565b816001600160a01b038116620000675760405162461bcd60e51b81526004016200005e9062000119565b60405180910390fd5b816001600160a01b038116620000915760405162461bcd60e51b81526004016200005e9062000119565b5050600080546001600160a01b039384166001600160a01b0319918216179091556001805492909316911617905562000145565b80516001600160a01b0381168114620000dd57600080fd5b919050565b60008060408385031215620000f5578182fd5b6200010083620000c5565b91506200011060208401620000c5565b90509250929050565b602080825260129082015271746f6b656e2d7a65726f2d6164647265737360701b604082015260600190565b6110fa80620001556000396000f3fe608060405234801561001057600080fd5b506004361061007d5760003560e01c8063e74f3fbb1161005b578063e74f3fbb146100d9578063f851a440146100e1578063fc0c546a146100f6578063fd75b8d4146100fe5761007d565b80633023641d146100825780635d73963e14610097578063b81a4d8f146100aa575b600080fd5b610095610090366004610b63565b61011f565b005b6100956100a5366004610b84565b61035c565b6100bd6100b8366004610b63565b610712565b6040516100d09796959493929190610fab565b60405180910390f35b610095610764565b6100e9610900565b6040516100d09190610c10565b6100e961090f565b61011161010c366004610b63565b61091e565b6040516100d0929190610f91565b6001546001600160a01b031633146101525760405162461bcd60e51b815260040161014990610e89565b60405180910390fd5b6001600160a01b038116600090815260026020526040812090806101758461091e565b600185015460038601549294509092506000916101b1916101a2916001600160801b039182169116610a8e565b836001600160801b0316610a8e565b60005460405163a9059cbb60e01b81529192506001600160a01b03169063a9059cbb906101e49088908690600401610c50565b602060405180830381600087803b1580156101fe57600080fd5b505af1158015610212573d6000803e3d6000fd5b505050506040513d601f19601f820116820180604052508101906102369190610bf0565b6102525760405162461bcd60e51b815260040161014990610d71565b60005460015460405163a9059cbb60e01b81526001600160a01b039283169263a9059cbb92610288929116908590600401610c50565b602060405180830381600087803b1580156102a257600080fd5b505af11580156102b6573d6000803e3d6000fd5b505050506040513d601f19601f820116820180604052508101906102da9190610bf0565b6102f65760405162461bcd60e51b815260040161014990610e1b565b60008085556001850181905560028501556003840180546001600160801b03191690556040517f340f6477ea48f04683f1f869a730e23ed8123e47f682b448d93174501e7aefdb9061034d90879085908590610c72565b60405180910390a15050505050565b6001546001600160a01b031633146103865760405162461bcd60e51b815260040161014990610e89565b6001600160a01b0386166000908152600260205260409020548690156103be5760405162461bcd60e51b815260040161014990610f5a565b6000836001600160801b0316116103e75760405162461bcd60e51b815260040161014990610d0c565b6000826001600160801b0316116104105760405162461bcd60e51b815260040161014990610e52565b826001600160801b0316846001600160801b0316116104415760405162461bcd60e51b815260040161014990610eb7565b600061044d8587611000565b6001600160801b03169050600081116104785760405162461bcd60e51b815260040161014990610da8565b6000546001546040516323b872dd60e01b81526001600160a01b03928316926323b872dd926104b09291169030908b90600401610c24565b602060405180830381600087803b1580156104ca57600080fd5b505af11580156104de573d6000803e3d6000fd5b505050506040513d601f19601f820116820180604052508101906105029190610bf0565b5060006040518060e001604052808960001461051e5789610520565b425b8152602001886001600160801b03168152602001876001600160801b03168152602001866001600160801b0316815260200160006001600160801b0316815260200160006001600160801b03168152602001856001600160801b0316815250905080600260008b6001600160a01b03166001600160a01b031681526020019081526020016000206000820151816000015560208201518160010160006101000a8154816001600160801b0302191690836001600160801b0316021790555060408201518160010160106101000a8154816001600160801b0302191690836001600160801b0316021790555060608201518160020160006101000a8154816001600160801b0302191690836001600160801b0316021790555060808201518160020160106101000a8154816001600160801b0302191690836001600160801b0316021790555060a08201518160030160006101000a8154816001600160801b0302191690836001600160801b0316021790555060c08201518160030160106101000a8154816001600160801b0302191690836001600160801b031602179055509050507f5fc7412c7ad6359de85ffdd4ea7bd4da26b75d7f3205231e1955c6d5e38005f6898260000151898989896040516106ff96959493929190610c9c565b60405180910390a1505050505050505050565b6002602081905260009182526040909120805460018201549282015460039092015490926001600160801b0380821693600160801b928390048216938183169391829004831692818116929091041687565b6000806107703361091e565b90925090506001600160801b03811661079b5760405162461bcd60e51b815260040161014990610eec565b336000908152600260208190526040909120908101546107cf906001600160801b03600160801b9091048116908516610ac2565b6002820180546001600160801b03928316600160801b02908316179055600382015461080091908116908416610ac2565b6003820180546001600160801b0319166001600160801b039290921691909117905560005460405163a9059cbb60e01b81526001600160a01b039091169063a9059cbb906108549033908690600401610c50565b602060405180830381600087803b15801561086e57600080fd5b505af1158015610882573d6000803e3d6000fd5b505050506040513d601f19601f820116820180604052508101906108a69190610bf0565b6108c25760405162461bcd60e51b815260040161014990610f23565b7f2962855c62781b7b45ee6a244c72c6b1eaa1b883b9bbbe60fcff273aa480c8d233836040516108f3929190610c50565b60405180910390a1505050565b6001546001600160a01b031681565b6000546001600160a01b031681565b6001600160a01b0381166000908152600260205260408120805482919042101561094f576000809250925050610a89565b600061095f428360000154610a8e565b600383015490915060009061098490600160801b90046001600160801b031683611026565b60028401549091506001600160801b03168110156109ab5760008094509450505050610a89565b6001830154600160801b90046001600160801b03168110610a0e57600383015460018401546000916109e9916001600160801b039182169116611059565b6001909401546001600160801b03600160801b909104169550929350610a8992505050565b6002830154600090610a31908390600160801b90046001600160801b0316610a8e565b6001850154909150600090610a58906001600160801b03600160801b820481169116611000565b6001600160801b031690506000610a78836001600160801b031683610af0565b929750919550610a89945050505050565b915091565b600082610a9b8382611081565b9150811115610abc5760405162461bcd60e51b815260040161014990610cdd565b92915050565b600082610acf8382610fe8565b9150811015610abc5760405162461bcd60e51b815260040161014990610ded565b6000811580610b1457508282610b06818361103a565b9250610b129083611026565b145b610abc5760405162461bcd60e51b815260040161014990610d43565b80356001600160a01b0381168114610b4757600080fd5b919050565b80356001600160801b0381168114610b4757600080fd5b600060208284031215610b74578081fd5b610b7d82610b30565b9392505050565b60008060008060008060c08789031215610b9c578182fd5b610ba587610b30565b955060208701359450610bba60408801610b4c565b9350610bc860608801610b4c565b9250610bd660808801610b4c565b9150610be460a08801610b4c565b90509295509295509295565b600060208284031215610c01578081fd5b81518015158114610b7d578182fd5b6001600160a01b0391909116815260200190565b6001600160a01b0393841681529190921660208201526001600160801b03909116604082015260600190565b6001600160a01b039290921682526001600160801b0316602082015260400190565b6001600160a01b039390931683526001600160801b03918216602084015216604082015260600190565b6001600160a01b0396909616865260208601949094526001600160801b0392831660408601529082166060850152811660808401521660a082015260c00190565b60208082526015908201527464732d6d6174682d7375622d756e646572666c6f7760581b604082015260600190565b60208082526018908201527f746f6b656e2d7a65726f2d76657374696e672d636c6966660000000000000000604082015260600190565b60208082526014908201527364732d6d6174682d6d756c2d6f766572666c6f7760601b604082015260600190565b6020808252601f908201527f746f6b656e2d726563697069656e742d7472616e736665722d6661696c656400604082015260600190565b60208082526025908201527f746f6b656e2d7a65726f2d616d6f756e742d7665737465642d7065722d696e74604082015264195c9d985b60da1b606082015260800190565b60208082526014908201527364732d6d6174682d6164642d6f766572666c6f7760601b604082015260600190565b6020808252601e908201527f746f6b656e2d6d756c74697369672d7472616e736665722d6661696c65640000604082015260600190565b6020808252601f908201527f76657374696e672d696e74657276616c2d6c6573732d7468616e2d7a65726f00604082015260600190565b6020808252601490820152731d995cdd1a5b99cb5d5b985d5d1a1bdc9a5e995960621b604082015260600190565b6020808252818101527f746f6b656e2d636c6966662d6c6f6e6765722d7468616e2d6475726174696f6e604082015260600190565b60208082526018908201527f746f6b656e2d7a65726f2d616d6f756e742d7665737465640000000000000000604082015260600190565b6020808252601c908201527f746f6b656e2d73656e6465722d7472616e736665722d6661696c656400000000604082015260600190565b60208082526017908201527f746f6b656e2d757365722d6772616e742d657869737473000000000000000000604082015260600190565b6001600160801b0392831681529116602082015260400190565b9687526001600160801b0395861660208801529385166040870152918416606086015283166080850152821660a08401521660c082015260e00190565b60008219821115610ffb57610ffb611098565b500190565b60006001600160801b038084168061101a5761101a6110ae565b92169190910492915050565b600082611035576110356110ae565b500490565b600081600019048311821515161561105457611054611098565b500290565b60006001600160801b038381169083168181101561107957611079611098565b039392505050565b60008282101561109357611093611098565b500390565b634e487b7160e01b600052601160045260246000fd5b634e487b7160e01b600052601260045260246000fdfea2646970667358221220fd860d25c0d19f9a6eb3cafe0b10f9f83aa46c2910223cee1a667b65fb6f06c764736f6c63430008000033",
  "linkReferences": {},
  "deployedLinkReferences": {}
}