{
  "_format": "hh-sol-artifact-1",
  "contractName": "DAO",
  "sourceName": "contracts/DAO.sol",
  "abi": [
    {
      "inputs": [
        {
          "internalType": "address",
          "name": "_token",
          "type": "address"
        }
      ],
      "stateMutability": "nonpayable",
      "type": "constructor"
    },
    {
      "inputs": [
        {
          "internalType": "bytes32",
          "name": "proposalHash",
          "type": "bytes32"
        }
      ],
      "name": "createProposal",
      "outputs": [],
      "stateMutability": "nonpayable",
      "type": "function"
    },
    {
      "inputs": [
        {
          "internalType": "uint256",
          "name": "amount",
          "type": "uint256"
        }
      ],
      "name": "deposit",
      "outputs": [],
      "stateMutability": "nonpayable",
      "type": "function"
    },
    {
      "inputs": [
        {
          "internalType": "bytes32",
          "name": "",
          "type": "bytes32"
        }
      ],
      "name": "proposals",
      "outputs": [
        {
          "internalType": "address",
          "name": "author",
          "type": "address"
        },
        {
          "internalType": "bytes32",
          "name": "hash",
          "type": "bytes32"
        },
        {
          "internalType": "uint256",
          "name": "createdAt",
          "type": "uint256"
        },
        {
          "internalType": "uint256",
          "name": "votesYes",
          "type": "uint256"
        },
        {
          "internalType": "uint256",
          "name": "votesNo",
          "type": "uint256"
        },
        {
          "internalType": "enum DAO.Status",
          "name": "status",
          "type": "uint8"
        }
      ],
      "stateMutability": "view",
      "type": "function"
    },
    {
      "inputs": [
        {
          "internalType": "address",
          "name": "",
          "type": "address"
        }
      ],
      "name": "shares",
      "outputs": [
        {
          "internalType": "uint256",
          "name": "",
          "type": "uint256"
        }
      ],
      "stateMutability": "view",
      "type": "function"
    },
    {
      "inputs": [],
      "name": "token",
      "outputs": [
        {
          "internalType": "contract Token",
          "name": "",
          "type": "address"
        }
      ],
      "stateMutability": "view",
      "type": "function"
    },
    {
      "inputs": [],
      "name": "totalShares",
      "outputs": [
        {
          "internalType": "uint256",
          "name": "",
          "type": "uint256"
        }
      ],
      "stateMutability": "view",
      "type": "function"
    },
    {
      "inputs": [
        {
          "internalType": "bytes32",
          "name": "proposalHash",
          "type": "bytes32"
        },
        {
          "internalType": "enum DAO.Side",
          "name": "side",
          "type": "uint8"
        }
      ],
      "name": "vote",
      "outputs": [],
      "stateMutability": "nonpayable",
      "type": "function"
    },
    {
      "inputs": [
        {
          "internalType": "address",
          "name": "",
          "type": "address"
        },
        {
          "internalType": "bytes32",
          "name": "",
          "type": "bytes32"
        }
      ],
      "name": "votes",
      "outputs": [
        {
          "internalType": "bool",
          "name": "",
          "type": "bool"
        }
      ],
      "stateMutability": "view",
      "type": "function"
    },
    {
      "inputs": [
        {
          "internalType": "uint256",
          "name": "amount",
          "type": "uint256"
        }
      ],
      "name": "withdraw",
      "outputs": [],
      "stateMutability": "nonpayable",
      "type": "function"
    }
  ],
  "bytecode": "0x608060405234801561001057600080fd5b50604051610a01380380610a0183398101604081905261002f91610054565b600480546001600160a01b0319166001600160a01b0392909216919091179055610082565b600060208284031215610065578081fd5b81516001600160a01b038116811461007b578182fd5b9392505050565b610970806100916000396000f3fe608060405234801561001057600080fd5b50600436106100935760003560e01c80633a98ef39116100665780633a98ef391461010e578063b6b55f2514610123578063c9a28cb914610136578063ce7c2ac214610149578063fc0c546a1461015c57610093565b80631db5ade8146100985780632542bf06146100c15780632e1a7d4d146100d657806332ed5b12146100e9575b600080fd5b6100ab6100a636600461067e565b610171565b6040516100b891906107a9565b60405180910390f35b6100d46100cf3660046106c7565b610191565b005b6100d46100e43660046106c7565b6102bc565b6100fc6100f73660046106c7565b6103af565b6040516100b896959493929190610735565b6101166103f1565b6040516100b891906108ad565b6100d46101313660046106c7565b6103f7565b6100d46101443660046106df565b610467565b61011661015736600461065d565b610620565b610164610632565b6040516100b891906107b4565b600160209081526000928352604080842090915290825290205460ff1681565b600081815260208190526040902060010154156101c95760405162461bcd60e51b81526004016101c0906107c8565b60405180910390fd5b6040518060c00160405280336001600160a01b0316815260200182815260200142815260200160008152602001600081526020016000600281111561021e57634e487b7160e01b600052602160045260246000fd5b905260008281526020818152604091829020835181546001600160a01b0319166001600160a01b039091161781559083015160018083019190915591830151600280830191909155606084015160038301556080840151600483015560a084015160058301805493949193909260ff19909116919084908111156102b257634e487b7160e01b600052602160045260246000fd5b0217905550505050565b336000908152600260205260409020548111156102eb5760405162461bcd60e51b81526004016101c0906107ff565b336000908152600260205260408120805483929061030a90849061090d565b925050819055508060036000828254610323919061090d565b90915550506004805460405163a9059cbb60e01b81526001600160a01b039091169163a9059cbb91610359913391869101610790565b602060405180830381600087803b15801561037357600080fd5b505af1158015610387573d6000803e3d6000fd5b505050506040513d601f19601f820116820180604052508101906103ab91906106a7565b5050565b6000602081905290815260409020805460018201546002830154600384015460048501546005909501546001600160a01b039094169492939192909160ff1686565b60035481565b33600090815260026020526040812080548392906104169084906108b6565b92505081905550806003600082825461042f91906108b6565b9091555050600480546040516323b872dd60e01b81526001600160a01b03909116916323b872dd916103599133913091879101610711565b600082815260208181526040808320338452600183528184208685529092529091205460ff16156104aa5760405162461bcd60e51b81526004016101c09061082a565b6000838152602081905260409020600101546104d85760405162461bcd60e51b81526004016101c090610851565b62093a8081600201546104eb91906108b6565b42111561050a5760405162461bcd60e51b81526004016101c090610881565b3360009081526001602081815260408084208785529091528220805460ff191682179055839081111561054d57634e487b7160e01b600052602160045260246000fd5b14156105ba5733600090815260026020526040812054600383018054919290916105789084906108b6565b9250508190555060326003548260030154606461059591906108ee565b61059f91906108ce565b11156105b55760058101805460ff191660011790555b61061b565b33600090815260026020526040812054600483018054919290916105df9084906108b6565b90915550506003546004820154603291906105fb9060646108ee565b61060591906108ce565b111561061b5760058101805460ff191660021790555b505050565b60026020526000908152604090205481565b6004546001600160a01b031681565b80356001600160a01b038116811461065857600080fd5b919050565b60006020828403121561066e578081fd5b61067782610641565b9392505050565b60008060408385031215610690578081fd5b61069983610641565b946020939093013593505050565b6000602082840312156106b8578081fd5b81518015158114610677578182fd5b6000602082840312156106d8578081fd5b5035919050565b600080604083850312156106f1578182fd5b82359150602083013560028110610706578182fd5b809150509250929050565b6001600160a01b039384168152919092166020820152604081019190915260600190565b6001600160a01b03871681526020810186905260408101859052606081018490526080810183905260c081016003831061077f57634e487b7160e01b600052602160045260246000fd5b8260a0830152979650505050505050565b6001600160a01b03929092168252602082015260400190565b901515815260200190565b6001600160a01b0391909116815260200190565b6020808252601b908201527f746869732070726f706f73616c20616c72656164792065786973740000000000604082015260600190565b6020808252601190820152706e6f7420656e6f7567682073686172657360781b604082015260600190565b6020808252600d908201526c185b1c9958591e481d9bdd1959609a1b604082015260600190565b6020808252601690820152751c1c9bdc1bdcd85b08185b1c9958591e48195e1a5cdd60521b604082015260600190565b6020808252601290820152713b37ba34b733903832b934b7b21037bb32b960711b604082015260600190565b90815260200190565b600082198211156108c9576108c9610924565b500190565b6000826108e957634e487b7160e01b81526012600452602481fd5b500490565b600081600019048311821515161561090857610908610924565b500290565b60008282101561091f5761091f610924565b500390565b634e487b7160e01b600052601160045260246000fdfea264697066735822122005c698f8e98267e64e48aeb332b724edd978a411b6eda31ea5961c74d3adbbb364736f6c63430008000033",
  "linkReferences": {},
  "deployedLinkReferences": {}
}