{
  "_format": "hh-sol-artifact-1",
  "contractName": "NFT",
  "sourceName": "contracts/NFT.sol",
  "abi": [
    {
      "inputs": [
        {
          "internalType": "string",
          "name": "name",
          "type": "string"
        },
        {
          "internalType": "string",
          "name": "symbol",
          "type": "string"
        }
      ],
      "stateMutability": "nonpayable",
      "type": "constructor"
    },
    {
      "anonymous": false,
      "inputs": [
        {
          "indexed": true,
          "internalType": "address",
          "name": "owner",
          "type": "address"
        },
        {
          "indexed": true,
          "internalType": "address",
          "name": "approved",
          "type": "address"
        },
        {
          "indexed": true,
          "internalType": "uint256",
          "name": "tokenId",
          "type": "uint256"
        }
      ],
      "name": "Approval",
      "type": "event"
    },
    {
      "anonymous": false,
      "inputs": [
        {
          "indexed": true,
          "internalType": "address",
          "name": "owner",
          "type": "address"
        },
        {
          "indexed": true,
          "internalType": "address",
          "name": "operator",
          "type": "address"
        },
        {
          "indexed": false,
          "internalType": "bool",
          "name": "approved",
          "type": "bool"
        }
      ],
      "name": "ApprovalForAll",
      "type": "event"
    },
    {
      "anonymous": false,
      "inputs": [
        {
          "indexed": true,
          "internalType": "address",
          "name": "from",
          "type": "address"
        },
        {
          "indexed": true,
          "internalType": "address",
          "name": "to",
          "type": "address"
        },
        {
          "indexed": true,
          "internalType": "uint256",
          "name": "tokenId",
          "type": "uint256"
        }
      ],
      "name": "Transfer",
      "type": "event"
    },
    {
      "inputs": [],
      "name": "admin",
      "outputs": [
        {
          "internalType": "address",
          "name": "",
          "type": "address"
        }
      ],
      "stateMutability": "view",
      "type": "function"
    },
    {
      "inputs": [
        {
          "internalType": "address",
          "name": "to",
          "type": "address"
        },
        {
          "internalType": "uint256",
          "name": "tokenId",
          "type": "uint256"
        }
      ],
      "name": "approve",
      "outputs": [],
      "stateMutability": "nonpayable",
      "type": "function"
    },
    {
      "inputs": [
        {
          "internalType": "address",
          "name": "owner",
          "type": "address"
        }
      ],
      "name": "balanceOf",
      "outputs": [
        {
          "internalType": "uint256",
          "name": "",
          "type": "uint256"
        }
      ],
      "stateMutability": "view",
      "type": "function"
    },
    {
      "inputs": [
        {
          "internalType": "uint256",
          "name": "tokenId",
          "type": "uint256"
        }
      ],
      "name": "getApproved",
      "outputs": [
        {
          "internalType": "address",
          "name": "",
          "type": "address"
        }
      ],
      "stateMutability": "view",
      "type": "function"
    },
    {
      "inputs": [
        {
          "internalType": "address",
          "name": "owner",
          "type": "address"
        },
        {
          "internalType": "address",
          "name": "operator",
          "type": "address"
        }
      ],
      "name": "isApprovedForAll",
      "outputs": [
        {
          "internalType": "bool",
          "name": "",
          "type": "bool"
        }
      ],
      "stateMutability": "view",
      "type": "function"
    },
    {
      "inputs": [
        {
          "internalType": "address",
          "name": "to",
          "type": "address"
        }
      ],
      "name": "mint",
      "outputs": [],
      "stateMutability": "nonpayable",
      "type": "function"
    },
    {
      "inputs": [],
      "name": "name",
      "outputs": [
        {
          "internalType": "string",
          "name": "",
          "type": "string"
        }
      ],
      "stateMutability": "view",
      "type": "function"
    },
    {
      "inputs": [],
      "name": "nextTokenId",
      "outputs": [
        {
          "internalType": "uint256",
          "name": "",
          "type": "uint256"
        }
      ],
      "stateMutability": "view",
      "type": "function"
    },
    {
      "inputs": [
        {
          "internalType": "uint256",
          "name": "tokenId",
          "type": "uint256"
        }
      ],
      "name": "ownerOf",
      "outputs": [
        {
          "internalType": "address",
          "name": "",
          "type": "address"
        }
      ],
      "stateMutability": "view",
      "type": "function"
    },
    {
      "inputs": [
        {
          "internalType": "address",
          "name": "from",
          "type": "address"
        },
        {
          "internalType": "address",
          "name": "to",
          "type": "address"
        },
        {
          "internalType": "uint256",
          "name": "tokenId",
          "type": "uint256"
        }
      ],
      "name": "safeTransferFrom",
      "outputs": [],
      "stateMutability": "nonpayable",
      "type": "function"
    },
    {
      "inputs": [
        {
          "internalType": "address",
          "name": "from",
          "type": "address"
        },
        {
          "internalType": "address",
          "name": "to",
          "type": "address"
        },
        {
          "internalType": "uint256",
          "name": "tokenId",
          "type": "uint256"
        },
        {
          "internalType": "bytes",
          "name": "_data",
          "type": "bytes"
        }
      ],
      "name": "safeTransferFrom",
      "outputs": [],
      "stateMutability": "nonpayable",
      "type": "function"
    },
    {
      "inputs": [
        {
          "internalType": "address",
          "name": "operator",
          "type": "address"
        },
        {
          "internalType": "bool",
          "name": "approved",
          "type": "bool"
        }
      ],
      "name": "setApprovalForAll",
      "outputs": [],
      "stateMutability": "nonpayable",
      "type": "function"
    },
    {
      "inputs": [
        {
          "internalType": "bytes4",
          "name": "interfaceId",
          "type": "bytes4"
        }
      ],
      "name": "supportsInterface",
      "outputs": [
        {
          "internalType": "bool",
          "name": "",
          "type": "bool"
        }
      ],
      "stateMutability": "view",
      "type": "function"
    },
    {
      "inputs": [],
      "name": "symbol",
      "outputs": [
        {
          "internalType": "string",
          "name": "",
          "type": "string"
        }
      ],
      "stateMutability": "view",
      "type": "function"
    },
    {
      "inputs": [
        {
          "internalType": "uint256",
          "name": "index",
          "type": "uint256"
        }
      ],
      "name": "tokenByIndex",
      "outputs": [
        {
          "internalType": "uint256",
          "name": "",
          "type": "uint256"
        }
      ],
      "stateMutability": "view",
      "type": "function"
    },
    {
      "inputs": [
        {
          "internalType": "address",
          "name": "owner",
          "type": "address"
        },
        {
          "internalType": "uint256",
          "name": "index",
          "type": "uint256"
        }
      ],
      "name": "tokenOfOwnerByIndex",
      "outputs": [
        {
          "internalType": "uint256",
          "name": "",
          "type": "uint256"
        }
      ],
      "stateMutability": "view",
      "type": "function"
    },
    {
      "inputs": [
        {
          "internalType": "uint256",
          "name": "tokenId",
          "type": "uint256"
        }
      ],
      "name": "tokenURI",
      "outputs": [
        {
          "internalType": "string",
          "name": "",
          "type": "string"
        }
      ],
      "stateMutability": "view",
      "type": "function"
    },
    {
      "inputs": [],
      "name": "totalSupply",
      "outputs": [
        {
          "internalType": "uint256",
          "name": "",
          "type": "uint256"
        }
      ],
      "stateMutability": "view",
      "type": "function"
    },
    {
      "inputs": [
        {
          "internalType": "address",
          "name": "from",
          "type": "address"
        },
        {
          "internalType": "address",
          "name": "to",
          "type": "address"
        },
        {
          "internalType": "uint256",
          "name": "tokenId",
          "type": "uint256"
        }
      ],
      "name": "transferFrom",
      "outputs": [],
      "stateMutability": "nonpayable",
      "type": "function"
    }
  ],
  "bytecode": "0x60806040523480156200001157600080fd5b5060405162001c8738038062001c878339810160408190526200003491620001d2565b8151829082906200004d90600090602085019062000081565b5080516200006390600190602084019062000081565b5050600b80546001600160a01b03191633179055506200028c915050565b8280546200008f9062000239565b90600052602060002090601f016020900481019282620000b35760008555620000fe565b82601f10620000ce57805160ff1916838001178555620000fe565b82800160010185558215620000fe579182015b82811115620000fe578251825591602001919060010190620000e1565b506200010c92915062000110565b5090565b5b808211156200010c576000815560010162000111565b600082601f83011262000138578081fd5b81516001600160401b038082111562000155576200015562000276565b6040516020601f8401601f19168201810183811183821017156200017d576200017d62000276565b604052838252858401810187101562000194578485fd5b8492505b83831015620001b7578583018101518284018201529182019162000198565b83831115620001c857848185840101525b5095945050505050565b60008060408385031215620001e5578182fd5b82516001600160401b0380821115620001fc578384fd5b6200020a8683870162000127565b9350602085015191508082111562000220578283fd5b506200022f8582860162000127565b9150509250929050565b6002810460018216806200024e57607f821691505b602082108114156200027057634e487b7160e01b600052602260045260246000fd5b50919050565b634e487b7160e01b600052604160045260246000fd5b6119eb806200029c6000396000f3fe608060405234801561001057600080fd5b50600436106101215760003560e01c80636352211e116100ad578063a22cb46511610071578063a22cb46514610243578063b88d4fde14610256578063c87b56dd14610269578063e985e9c51461027c578063f851a4401461028f57610121565b80636352211e146101fa5780636a6278421461020d57806370a082311461022057806375794a3c1461023357806395d89b411461023b57610121565b806318160ddd116100f457806318160ddd1461019957806323b872dd146101ae5780632f745c59146101c157806342842e0e146101d45780634f6ccce7146101e757610121565b806301ffc9a71461012657806306fdde031461014f578063081812fc14610164578063095ea7b314610184575b600080fd5b610139610134366004611296565b610297565b6040516101469190611392565b60405180910390f35b6101576102c4565b604051610146919061139d565b6101776101723660046112ce565b610356565b6040516101469190611341565b61019761019236600461126d565b6103a2565b005b6101a161043a565b6040516101469190611856565b6101976101bc36600461112c565b610440565b6101a16101cf36600461126d565b610478565b6101976101e236600461112c565b6104ca565b6101a16101f53660046112ce565b6104e5565b6101776102083660046112ce565b610540565b61019761021b3660046110e0565b610575565b6101a161022e3660046110e0565b6105c3565b6101a1610607565b61015761060d565b610197610251366004611233565b61061c565b610197610264366004611167565b6106ea565b6101576102773660046112ce565b610729565b61013961028a3660046110fa565b6107ac565b6101776107da565b60006001600160e01b0319821663780e9d6360e01b14806102bc57506102bc826107e9565b90505b919050565b6060600080546102d3906118ce565b80601f01602080910402602001604051908101604052809291908181526020018280546102ff906118ce565b801561034c5780601f106103215761010080835404028352916020019161034c565b820191906000526020600020905b81548152906001019060200180831161032f57829003601f168201915b5050505050905090565b600061036182610829565b6103865760405162461bcd60e51b815260040161037d90611694565b60405180910390fd5b506000908152600460205260409020546001600160a01b031690565b60006103ad82610540565b9050806001600160a01b0316836001600160a01b031614156103e15760405162461bcd60e51b815260040161037d90611778565b806001600160a01b03166103f3610846565b6001600160a01b0316148061040f575061040f8161028a610846565b61042b5760405162461bcd60e51b815260040161037d9061156f565b610435838361084a565b505050565b60085490565b61045161044b610846565b826108b8565b61046d5760405162461bcd60e51b815260040161037d906117b9565b61043583838361093d565b6000610483836105c3565b82106104a15760405162461bcd60e51b815260040161037d906113b0565b506001600160a01b03919091166000908152600660209081526040808320938352929052205490565b610435838383604051806020016040528060008152506106ea565b60006104ef61043a565b821061050d5760405162461bcd60e51b815260040161037d9061180a565b6008828154811061052e57634e487b7160e01b600052603260045260246000fd5b90600052602060002001549050919050565b6000818152600260205260408120546001600160a01b0316806102bc5760405162461bcd60e51b815260040161037d90611616565b600b546001600160a01b0316331461059f5760405162461bcd60e51b815260040161037d906114ff565b6105ab81600a54610a6a565b600a80549060006105bb83611909565b919050555050565b60006001600160a01b0382166105eb5760405162461bcd60e51b815260040161037d906115cc565b506001600160a01b031660009081526003602052604090205490565b600a5481565b6060600180546102d3906118ce565b610624610846565b6001600160a01b0316826001600160a01b031614156106555760405162461bcd60e51b815260040161037d906114c8565b8060056000610662610846565b6001600160a01b03908116825260208083019390935260409182016000908120918716808252919093529120805460ff1916921515929092179091556106a6610846565b6001600160a01b03167f17307eab39ab6107e8899845ad3d59bd9653f200f220920489ca2b5937696c31836040516106de9190611392565b60405180910390a35050565b6106fb6106f5610846565b836108b8565b6107175760405162461bcd60e51b815260040161037d906117b9565b61072384848484610a88565b50505050565b606061073482610829565b6107505760405162461bcd60e51b815260040161037d90611729565b600061075a610abb565b9050600081511161077a57604051806020016040528060008152506107a5565b8061078484610adb565b604051602001610795929190611312565b6040516020818303038152906040525b9392505050565b6001600160a01b03918216600090815260056020908152604080832093909416825291909152205460ff1690565b600b546001600160a01b031681565b60006001600160e01b031982166380ac58cd60e01b148061081a57506001600160e01b03198216635b5e139f60e01b145b806102bc57506102bc82610bf6565b6000908152600260205260409020546001600160a01b0316151590565b3390565b600081815260046020526040902080546001600160a01b0319166001600160a01b038416908117909155819061087f82610540565b6001600160a01b03167f8c5be1e5ebec7d5bd14f71427d1e84f3dd0314c0f7b2291e5b200ac8c7c3b92560405160405180910390a45050565b60006108c382610829565b6108df5760405162461bcd60e51b815260040161037d90611523565b60006108ea83610540565b9050806001600160a01b0316846001600160a01b031614806109255750836001600160a01b031661091a84610356565b6001600160a01b0316145b80610935575061093581856107ac565b949350505050565b826001600160a01b031661095082610540565b6001600160a01b0316146109765760405162461bcd60e51b815260040161037d906116e0565b6001600160a01b03821661099c5760405162461bcd60e51b815260040161037d90611484565b6109a7838383610c0f565b6109b260008261084a565b6001600160a01b03831660009081526003602052604081208054600192906109db90849061188b565b90915550506001600160a01b0382166000908152600360205260408120805460019290610a0990849061185f565b909155505060008181526002602052604080822080546001600160a01b0319166001600160a01b0386811691821790925591518493918716917fddf252ad1be2c89b69c2b068fc378daa952ba7f163c4a11628f55a4df523b3ef91a4505050565b610a84828260405180602001604052806000815250610c98565b5050565b610a9384848461093d565b610a9f84848484610ccb565b6107235760405162461bcd60e51b815260040161037d906113fb565b606060405180606001604052806022815260200161199460229139905090565b606081610b0057506040805180820190915260018152600360fc1b60208201526102bf565b8160005b8115610b2a5780610b1481611909565b9150610b239050600a83611877565b9150610b04565b60008167ffffffffffffffff811115610b5357634e487b7160e01b600052604160045260246000fd5b6040519080825280601f01601f191660200182016040528015610b7d576020820181803683370190505b5090505b841561093557610b9260018361188b565b9150610b9f600a86611924565b610baa90603061185f565b60f81b818381518110610bcd57634e487b7160e01b600052603260045260246000fd5b60200101906001600160f81b031916908160001a905350610bef600a86611877565b9450610b81565b6001600160e01b031981166301ffc9a760e01b14919050565b610c1a838383610435565b6001600160a01b038316610c3657610c3181610de6565b610c59565b816001600160a01b0316836001600160a01b031614610c5957610c598382610e2a565b6001600160a01b038216610c7557610c7081610ec7565b610435565b826001600160a01b0316826001600160a01b031614610435576104358282610fa0565b610ca28383610fe4565b610caf6000848484610ccb565b6104355760405162461bcd60e51b815260040161037d906113fb565b6000610cdf846001600160a01b03166110c3565b15610ddb57836001600160a01b031663150b7a02610cfb610846565b8786866040518563ffffffff1660e01b8152600401610d1d9493929190611355565b602060405180830381600087803b158015610d3757600080fd5b505af1925050508015610d67575060408051601f3d908101601f19168201909252610d64918101906112b2565b60015b610dc1573d808015610d95576040519150601f19603f3d011682016040523d82523d6000602084013e610d9a565b606091505b508051610db95760405162461bcd60e51b815260040161037d906113fb565b805181602001fd5b6001600160e01b031916630a85bd0160e11b149050610935565b506001949350505050565b600880546000838152600960205260408120829055600182018355919091527ff3f7a9fe364faab93b216da50a3214154f22a0a2b415b23a84c8169e8b636ee30155565b60006001610e37846105c3565b610e41919061188b565b600083815260076020526040902054909150808214610e94576001600160a01b03841660009081526006602090815260408083208584528252808320548484528184208190558352600790915290208190555b5060009182526007602090815260408084208490556001600160a01b039094168352600681528383209183525290812055565b600854600090610ed99060019061188b565b60008381526009602052604081205460088054939450909284908110610f0f57634e487b7160e01b600052603260045260246000fd5b906000526020600020015490508060088381548110610f3e57634e487b7160e01b600052603260045260246000fd5b6000918252602080832090910192909255828152600990915260408082208490558582528120556008805480610f8457634e487b7160e01b600052603160045260246000fd5b6001900381819060005260206000200160009055905550505050565b6000610fab836105c3565b6001600160a01b039093166000908152600660209081526040808320868452825280832085905593825260079052919091209190915550565b6001600160a01b03821661100a5760405162461bcd60e51b815260040161037d9061165f565b61101381610829565b156110305760405162461bcd60e51b815260040161037d9061144d565b61103c60008383610c0f565b6001600160a01b038216600090815260036020526040812080546001929061106590849061185f565b909155505060008181526002602052604080822080546001600160a01b0319166001600160a01b03861690811790915590518392907fddf252ad1be2c89b69c2b068fc378daa952ba7f163c4a11628f55a4df523b3ef908290a45050565b3b151590565b80356001600160a01b03811681146102bf57600080fd5b6000602082840312156110f1578081fd5b6107a5826110c9565b6000806040838503121561110c578081fd5b611115836110c9565b9150611123602084016110c9565b90509250929050565b600080600060608486031215611140578081fd5b611149846110c9565b9250611157602085016110c9565b9150604084013590509250925092565b6000806000806080858703121561117c578081fd5b611185856110c9565b935060206111948187016110c9565b935060408601359250606086013567ffffffffffffffff808211156111b7578384fd5b818801915088601f8301126111ca578384fd5b8135818111156111dc576111dc611964565b604051601f8201601f19168101850183811182821017156111ff576111ff611964565b60405281815283820185018b1015611215578586fd5b81858501868301379081019093019390935250939692955090935050565b60008060408385031215611245578182fd5b61124e836110c9565b915060208301358015158114611262578182fd5b809150509250929050565b6000806040838503121561127f578182fd5b611288836110c9565b946020939093013593505050565b6000602082840312156112a7578081fd5b81356107a58161197a565b6000602082840312156112c3578081fd5b81516107a58161197a565b6000602082840312156112df578081fd5b5035919050565b600081518084526112fe8160208601602086016118a2565b601f01601f19169290920160200192915050565b600083516113248184602088016118a2565b8351908301906113388183602088016118a2565b01949350505050565b6001600160a01b0391909116815260200190565b6001600160a01b0385811682528416602082015260408101839052608060608201819052600090611388908301846112e6565b9695505050505050565b901515815260200190565b6000602082526107a560208301846112e6565b6020808252602b908201527f455243373231456e756d657261626c653a206f776e657220696e646578206f7560408201526a74206f6620626f756e647360a81b606082015260800190565b60208082526032908201527f4552433732313a207472616e7366657220746f206e6f6e20455243373231526560408201527131b2b4bb32b91034b6b83632b6b2b73a32b960711b606082015260800190565b6020808252601c908201527f4552433732313a20746f6b656e20616c7265616479206d696e74656400000000604082015260600190565b60208082526024908201527f4552433732313a207472616e7366657220746f20746865207a65726f206164646040820152637265737360e01b606082015260800190565b60208082526019908201527f4552433732313a20617070726f766520746f2063616c6c657200000000000000604082015260600190565b6020808252600a908201526937b7363c9030b236b4b760b11b604082015260600190565b6020808252602c908201527f4552433732313a206f70657261746f7220717565727920666f72206e6f6e657860408201526b34b9ba32b73a103a37b5b2b760a11b606082015260800190565b60208082526038908201527f4552433732313a20617070726f76652063616c6c6572206973206e6f74206f7760408201527f6e6572206e6f7220617070726f76656420666f7220616c6c0000000000000000606082015260800190565b6020808252602a908201527f4552433732313a2062616c616e636520717565727920666f7220746865207a65604082015269726f206164647265737360b01b606082015260800190565b60208082526029908201527f4552433732313a206f776e657220717565727920666f72206e6f6e657869737460408201526832b73a103a37b5b2b760b91b606082015260800190565b6020808252818101527f4552433732313a206d696e7420746f20746865207a65726f2061646472657373604082015260600190565b6020808252602c908201527f4552433732313a20617070726f76656420717565727920666f72206e6f6e657860408201526b34b9ba32b73a103a37b5b2b760a11b606082015260800190565b60208082526029908201527f4552433732313a207472616e73666572206f6620746f6b656e2074686174206960408201526839903737ba1037bbb760b91b606082015260800190565b6020808252602f908201527f4552433732314d657461646174613a2055524920717565727920666f72206e6f60408201526e3732bc34b9ba32b73a103a37b5b2b760891b606082015260800190565b60208082526021908201527f4552433732313a20617070726f76616c20746f2063757272656e74206f776e656040820152603960f91b606082015260800190565b60208082526031908201527f4552433732313a207472616e736665722063616c6c6572206973206e6f74206f6040820152701ddb995c881b9bdc88185c1c1c9bdd9959607a1b606082015260800190565b6020808252602c908201527f455243373231456e756d657261626c653a20676c6f62616c20696e646578206f60408201526b7574206f6620626f756e647360a01b606082015260800190565b90815260200190565b6000821982111561187257611872611938565b500190565b6000826118865761188661194e565b500490565b60008282101561189d5761189d611938565b500390565b60005b838110156118bd5781810151838201526020016118a5565b838111156107235750506000910152565b6002810460018216806118e257607f821691505b6020821081141561190357634e487b7160e01b600052602260045260246000fd5b50919050565b600060001982141561191d5761191d611938565b5060010190565b6000826119335761193361194e565b500690565b634e487b7160e01b600052601160045260246000fd5b634e487b7160e01b600052601260045260246000fd5b634e487b7160e01b600052604160045260246000fd5b6001600160e01b03198116811461199057600080fd5b5056fe68747470733a2f2f676174657761792e70696e6174612e636c6f75642f697066732fa264697066735822122053c41b53e0cd23fe75ba3bc4d9362a59a2351712b863f6f1881041015fa6bf6164736f6c63430008000033",
  "linkReferences": {},
  "deployedLinkReferences": {}
}