{
  "_format": "hh-sol-artifact-1",
  "contractName": "Token",
  "sourceName": "contracts/Token.sol",
  "abi": [
    {
      "inputs": [
        {
          "internalType": "string",
          "name": "name",
          "type": "string"
        },
        {
          "internalType": "string",
          "name": "symbol",
          "type": "string"
        },
        {
          "internalType": "uint256",
          "name": "_maxTotalSupply",
          "type": "uint256"
        }
      ],
      "stateMutability": "nonpayable",
      "type": "constructor"
    },
    {
      "anonymous": false,
      "inputs": [
        {
          "indexed": true,
          "internalType": "address",
          "name": "owner",
          "type": "address"
        },
        {
          "indexed": true,
          "internalType": "address",
          "name": "spender",
          "type": "address"
        },
        {
          "indexed": false,
          "internalType": "uint256",
          "name": "value",
          "type": "uint256"
        }
      ],
      "name": "Approval",
      "type": "event"
    },
    {
      "anonymous": false,
      "inputs": [
        {
          "indexed": true,
          "internalType": "address",
          "name": "from",
          "type": "address"
        },
        {
          "indexed": true,
          "internalType": "address",
          "name": "to",
          "type": "address"
        },
        {
          "indexed": false,
          "internalType": "uint256",
          "name": "value",
          "type": "uint256"
        }
      ],
      "name": "Transfer",
      "type": "event"
    },
    {
      "inputs": [],
      "name": "admin",
      "outputs": [
        {
          "internalType": "address",
          "name": "",
          "type": "address"
        }
      ],
      "stateMutability": "view",
      "type": "function"
    },
    {
      "inputs": [
        {
          "internalType": "address",
          "name": "owner",
          "type": "address"
        },
        {
          "internalType": "address",
          "name": "spender",
          "type": "address"
        }
      ],
      "name": "allowance",
      "outputs": [
        {
          "internalType": "uint256",
          "name": "",
          "type": "uint256"
        }
      ],
      "stateMutability": "view",
      "type": "function"
    },
    {
      "inputs": [
        {
          "internalType": "address",
          "name": "spender",
          "type": "address"
        },
        {
          "internalType": "uint256",
          "name": "amount",
          "type": "uint256"
        }
      ],
      "name": "approve",
      "outputs": [
        {
          "internalType": "bool",
          "name": "",
          "type": "bool"
        }
      ],
      "stateMutability": "nonpayable",
      "type": "function"
    },
    {
      "inputs": [
        {
          "internalType": "address",
          "name": "account",
          "type": "address"
        }
      ],
      "name": "balanceOf",
      "outputs": [
        {
          "internalType": "uint256",
          "name": "",
          "type": "uint256"
        }
      ],
      "stateMutability": "view",
      "type": "function"
    },
    {
      "inputs": [],
      "name": "decimals",
      "outputs": [
        {
          "internalType": "uint8",
          "name": "",
          "type": "uint8"
        }
      ],
      "stateMutability": "view",
      "type": "function"
    },
    {
      "inputs": [
        {
          "internalType": "address",
          "name": "spender",
          "type": "address"
        },
        {
          "internalType": "uint256",
          "name": "subtractedValue",
          "type": "uint256"
        }
      ],
      "name": "decreaseAllowance",
      "outputs": [
        {
          "internalType": "bool",
          "name": "",
          "type": "bool"
        }
      ],
      "stateMutability": "nonpayable",
      "type": "function"
    },
    {
      "inputs": [
        {
          "internalType": "address",
          "name": "spender",
          "type": "address"
        },
        {
          "internalType": "uint256",
          "name": "addedValue",
          "type": "uint256"
        }
      ],
      "name": "increaseAllowance",
      "outputs": [
        {
          "internalType": "bool",
          "name": "",
          "type": "bool"
        }
      ],
      "stateMutability": "nonpayable",
      "type": "function"
    },
    {
      "inputs": [],
      "name": "maxTotalSupply",
      "outputs": [
        {
          "internalType": "uint256",
          "name": "",
          "type": "uint256"
        }
      ],
      "stateMutability": "view",
      "type": "function"
    },
    {
      "inputs": [
        {
          "internalType": "address",
          "name": "account",
          "type": "address"
        },
        {
          "internalType": "uint256",
          "name": "amount",
          "type": "uint256"
        }
      ],
      "name": "mint",
      "outputs": [],
      "stateMutability": "nonpayable",
      "type": "function"
    },
    {
      "inputs": [],
      "name": "name",
      "outputs": [
        {
          "internalType": "string",
          "name": "",
          "type": "string"
        }
      ],
      "stateMutability": "view",
      "type": "function"
    },
    {
      "inputs": [],
      "name": "symbol",
      "outputs": [
        {
          "internalType": "string",
          "name": "",
          "type": "string"
        }
      ],
      "stateMutability": "view",
      "type": "function"
    },
    {
      "inputs": [],
      "name": "totalSupply",
      "outputs": [
        {
          "internalType": "uint256",
          "name": "",
          "type": "uint256"
        }
      ],
      "stateMutability": "view",
      "type": "function"
    },
    {
      "inputs": [
        {
          "internalType": "address",
          "name": "recipient",
          "type": "address"
        },
        {
          "internalType": "uint256",
          "name": "amount",
          "type": "uint256"
        }
      ],
      "name": "transfer",
      "outputs": [
        {
          "internalType": "bool",
          "name": "",
          "type": "bool"
        }
      ],
      "stateMutability": "nonpayable",
      "type": "function"
    },
    {
      "inputs": [
        {
          "internalType": "address",
          "name": "sender",
          "type": "address"
        },
        {
          "internalType": "address",
          "name": "recipient",
          "type": "address"
        },
        {
          "internalType": "uint256",
          "name": "amount",
          "type": "uint256"
        }
      ],
      "name": "transferFrom",
      "outputs": [
        {
          "internalType": "bool",
          "name": "",
          "type": "bool"
        }
      ],
      "stateMutability": "nonpayable",
      "type": "function"
    },
    {
      "inputs": [
        {
          "internalType": "address",
          "name": "newAdmin",
          "type": "address"
        }
      ],
      "name": "updateAdmin",
      "outputs": [],
      "stateMutability": "nonpayable",
      "type": "function"
    }
  ],
  "bytecode": "0x60806040523480156200001157600080fd5b5060405162000f5838038062000f588339810160408190526200003491620001d5565b8251839083906200004d90600390602085019062000084565b5080516200006390600490602084019062000084565b5050600580546001600160a01b031916331790555060065550620002989050565b828054620000929062000245565b90600052602060002090601f016020900481019282620000b6576000855562000101565b82601f10620000d157805160ff191683800117855562000101565b8280016001018555821562000101579182015b8281111562000101578251825591602001919060010190620000e4565b506200010f92915062000113565b5090565b5b808211156200010f576000815560010162000114565b600082601f8301126200013b578081fd5b81516001600160401b038082111562000158576200015862000282565b6040516020601f8401601f191682018101838111838210171562000180576200018062000282565b604052838252858401810187101562000197578485fd5b8492505b83831015620001ba57858301810151828401820152918201916200019b565b83831115620001cb57848185840101525b5095945050505050565b600080600060608486031215620001ea578283fd5b83516001600160401b038082111562000201578485fd5b6200020f878388016200012a565b9450602086015191508082111562000225578384fd5b5062000234868287016200012a565b925050604084015190509250925092565b6002810460018216806200025a57607f821691505b602082108114156200027c57634e487b7160e01b600052602260045260246000fd5b50919050565b634e487b7160e01b600052604160045260246000fd5b610cb080620002a86000396000f3fe608060405234801561001057600080fd5b50600436106100f55760003560e01c806340c10f1911610097578063a9059cbb11610066578063a9059cbb146101d3578063dd62ed3e146101e6578063e2f273bd146101f9578063f851a4401461020c576100f5565b806340c10f191461019057806370a08231146101a557806395d89b41146101b8578063a457c2d7146101c0576100f5565b806323b872dd116100d357806323b872dd1461014d5780632ab4d05214610160578063313ce56714610168578063395093511461017d576100f5565b806306fdde03146100fa578063095ea7b31461011857806318160ddd14610138575b600080fd5b610102610221565b60405161010f919061091d565b60405180910390f35b61012b6101263660046108d5565b6102b3565b60405161010f9190610912565b6101406102d0565b60405161010f9190610be3565b61012b61015b36600461089a565b6102d6565b610140610376565b61017061037c565b60405161010f9190610bec565b61012b61018b3660046108d5565b610381565b6101a361019e3660046108d5565b6103d0565b005b6101406101b336600461084e565b610441565b610102610460565b61012b6101ce3660046108d5565b61046f565b61012b6101e13660046108d5565b6104ea565b6101406101f4366004610868565b6104fe565b6101a361020736600461084e565b610529565b610214610575565b60405161010f91906108fe565b60606003805461023090610c29565b80601f016020809104026020016040519081016040528092919081815260200182805461025c90610c29565b80156102a95780601f1061027e576101008083540402835291602001916102a9565b820191906000526020600020905b81548152906001019060200180831161028c57829003601f168201915b5050505050905090565b60006102c76102c0610584565b8484610588565b50600192915050565b60025490565b60006102e384848461063c565b6001600160a01b038416600090815260016020526040812081610304610584565b6001600160a01b03166001600160a01b03168152602001908152602001600020549050828110156103505760405162461bcd60e51b815260040161034790610a5f565b60405180910390fd5b61036b8561035c610584565b6103668685610c12565b610588565b506001949350505050565b60065481565b601290565b60006102c761038e610584565b84846001600061039c610584565b6001600160a01b03908116825260208083019390935260409182016000908120918b16815292529020546103669190610bfa565b6005546001600160a01b031633146103fa5760405162461bcd60e51b815260040161034790610a3b565b60006104046102d0565b6006549091506104148284610764565b11156104325760405162461bcd60e51b815260040161034790610b30565b61043c8383610777565b505050565b6001600160a01b0381166000908152602081905260409020545b919050565b60606004805461023090610c29565b6000806001600061047e610584565b6001600160a01b03908116825260208083019390935260409182016000908120918816815292529020549050828110156104ca5760405162461bcd60e51b815260040161034790610b67565b6104e06104d5610584565b856103668685610c12565b5060019392505050565b60006102c76104f7610584565b848461063c565b6001600160a01b03918216600090815260016020908152604080832093909416825291909152205490565b6005546001600160a01b031633146105535760405162461bcd60e51b815260040161034790610a3b565b600580546001600160a01b0319166001600160a01b0392909216919091179055565b6005546001600160a01b031681565b3390565b6001600160a01b0383166105ae5760405162461bcd60e51b815260040161034790610aec565b6001600160a01b0382166105d45760405162461bcd60e51b8152600401610347906109b3565b6001600160a01b0380841660008181526001602090815260408083209487168084529490915290819020849055517f8c5be1e5ebec7d5bd14f71427d1e84f3dd0314c0f7b2291e5b200ac8c7c3b9259061062f908590610be3565b60405180910390a3505050565b6001600160a01b0383166106625760405162461bcd60e51b815260040161034790610aa7565b6001600160a01b0382166106885760405162461bcd60e51b815260040161034790610970565b61069383838361043c565b6001600160a01b038316600090815260208190526040902054818110156106cc5760405162461bcd60e51b8152600401610347906109f5565b6106d68282610c12565b6001600160a01b03808616600090815260208190526040808220939093559085168152908120805484929061070c908490610bfa565b92505081905550826001600160a01b0316846001600160a01b03167fddf252ad1be2c89b69c2b068fc378daa952ba7f163c4a11628f55a4df523b3ef846040516107569190610be3565b60405180910390a350505050565b60006107708284610bfa565b9392505050565b6001600160a01b03821661079d5760405162461bcd60e51b815260040161034790610bac565b6107a96000838361043c565b80600260008282546107bb9190610bfa565b90915550506001600160a01b038216600090815260208190526040812080548392906107e8908490610bfa565b90915550506040516001600160a01b038316906000907fddf252ad1be2c89b69c2b068fc378daa952ba7f163c4a11628f55a4df523b3ef9061082b908590610be3565b60405180910390a35050565b80356001600160a01b038116811461045b57600080fd5b60006020828403121561085f578081fd5b61077082610837565b6000806040838503121561087a578081fd5b61088383610837565b915061089160208401610837565b90509250929050565b6000806000606084860312156108ae578081fd5b6108b784610837565b92506108c560208501610837565b9150604084013590509250925092565b600080604083850312156108e7578182fd5b6108f083610837565b946020939093013593505050565b6001600160a01b0391909116815260200190565b901515815260200190565b6000602080835283518082850152825b818110156109495785810183015185820160400152820161092d565b8181111561095a5783604083870101525b50601f01601f1916929092016040019392505050565b60208082526023908201527f45524332303a207472616e7366657220746f20746865207a65726f206164647260408201526265737360e81b606082015260800190565b60208082526022908201527f45524332303a20617070726f766520746f20746865207a65726f206164647265604082015261737360f01b606082015260800190565b60208082526026908201527f45524332303a207472616e7366657220616d6f756e7420657863656564732062604082015265616c616e636560d01b606082015260800190565b6020808252600a908201526937b7363c9030b236b4b760b11b604082015260600190565b60208082526028908201527f45524332303a207472616e7366657220616d6f756e74206578636565647320616040820152676c6c6f77616e636560c01b606082015260800190565b60208082526025908201527f45524332303a207472616e736665722066726f6d20746865207a65726f206164604082015264647265737360d81b606082015260800190565b60208082526024908201527f45524332303a20617070726f76652066726f6d20746865207a65726f206164646040820152637265737360e01b606082015260800190565b6020808252601a908201527f61626f7665206d6178546f74616c537570706c79206c696d6974000000000000604082015260600190565b60208082526025908201527f45524332303a2064656372656173656420616c6c6f77616e63652062656c6f77604082015264207a65726f60d81b606082015260800190565b6020808252601f908201527f45524332303a206d696e7420746f20746865207a65726f206164647265737300604082015260600190565b90815260200190565b60ff91909116815260200190565b60008219821115610c0d57610c0d610c64565b500190565b600082821015610c2457610c24610c64565b500390565b600281046001821680610c3d57607f821691505b60208210811415610c5e57634e487b7160e01b600052602260045260246000fd5b50919050565b634e487b7160e01b600052601160045260246000fdfea2646970667358221220ab6a9712ef6416c8993a2b09e7744c60f39ad63f7bb0ea7f6a231d88327d38db64736f6c63430008000033",
  "linkReferences": {},
  "deployedLinkReferences": {}
}